:020000040800F2
:10000000080C0020D50100084F2B00083D280008EF
:100010004D2B0008C5070008392F0008000000001C
:10002000000000000000000000000000532B00084A
:10003000FF07000800000000512B0008552B0008A6
:10004000EF010008EF010008EF010008EF010008D0
:10005000EF010008EF010008EF010008EF010008C0
:10006000EF010008EF010008EF010008C9070008D0
:10007000EF010008EF010008EF010008EF010008A0
:10008000EF010008EF010008EF010008EF01000890
:10009000EF010008EF010008EF010008EF01000880
:1000A000EF010008EF010008EF010008EF01000870
:1000B000D52B0008EF010008EF010008EF01000850
:1000C000EF010008EF010008EF010008EF01000850
:1000D000EF010008212F0008EF0100082D2F000874
:1000E000EF010008EF010008EF010008EF01000830
:1000F000EF010008EF010008EF010008EF01000820
:10010000EF010008EF010008EF010008EF0100080F
:10011000EF010008EF010008EF010008EF010008FF
:10012000EF010008EF010008EF010008EF010008EF
:1001300000F002F800F03FF80AA090E8000C8244BA
:100140008344AAF10107DA4501D100F034F8AFF297
:10015000090EBAE80F0013F0010F18BFFB1A43F0A5
:1001600001031847E030000000310000103A24BFBE
:1001700078C878C1FAD8520724BF30C830C144BF0C
:1001800004680C607047000000230024002500264E
:10019000103A28BF78C1FBD8520728BF30C148BFEA
:1001A0000B607047642900F06B80002070471FB51A
:1001B0001FBD10B510BD00F019FA1146FFF7F7FF8B
:1001C00002F0EEFE00F037FA03B4FFF7F2FF03BCD3
:1001D00002F0CAFE0948804709480047FEE7FEE7EB
:1001E000FEE7FEE7FEE7FEE7FEE7FEE7FEE7FEE7E7
:1001F00004480549054A064B70470000D32B000808
:100200003101000808060020080C00200808002022
:1002100008080020704700000FB4044910B503AA75
:10022000029800F0C9F910BC5DF814FB0C00002026
:1002300070B5044685690068C10601D5302600E026
:100240002026C00707D070BDD4E901213046904771
:10025000206A401C20626D1EF6D570BD70B5044644
:1002600085690078C00707D170BDD4E9012120203D
:100270009047206A401C20626D1EF6D570BD0000BC
:100280002DE9F0410646002410687529314616A56F
:1002900010D0AFF30080002802DA404213A507E037
:1002A00031688A0701D512A502E0490704D511A5D6
:1002B000012401E0AFF3008000210A2206F12407A7
:1002C00009E0B0FBF2FCB0FBF2F302FB1C003030A3
:1002D00078541846491C0028F3D123462A46304654
:1002E000BDE8F04100F0F7B8000000002D0000006C
:1002F0002B000000200000002DE9F05F8946044635
:100300004FF0000ADFF874B1FB44C0F820A020468B
:10031000E1688847002874D0252806D0D4E9012157
:100320009047206A401C2062F1E700265F46204685
:10033000E16888472028054607DB312D05D278196A
:1003400010F8200C08B10643F1E7B00701D526F0FC
:100350000406C4F81CA00027C4F818A02A2D09D050
:10036000284602F0FAFD38B304EB8708303DC8F8A0
:10037000185019E059F8041B204604EB87029161DC
:10038000E1688847012F054618D1E069002820DA86
:1003900026F020061DE0D8F8180000EB800005EBE1
:1003A00040003038C8F818002046E1688847054604
:1003B00002F0D3FD0028EED1012F0AD02E2D08D156
:1003C0002046E16888477F1C0546022F46F020063C
:1003D000C4DBA069002803DA404246F00106A061B0
:1003E000F00701D026F010066C2D0BD0682D09D037
:1003F0004C2D39D06A2D35D0742D35D07A2D33D08F
:1004000016E038E0E1682F4620468847B8420546A6
:1004100009D16C2F26D04FF48060E1680643204656
:100420008847054604E06C2F1AD04FF480700643CD
:100430000DB3A5F14100192802D8203546F4006615
:100440004A462946204626604E46FFF7ABFE80B15D
:1004500001280BD0F61D26F0070000F1080956E729
:100460004020E4E78020D8E70020D6E706F1040921
:100470004DE7284652E7206ABDE8F09F242F000090
:100480004FF0000200B5134694469646203922BF2D
:10049000A0E80C50A0E80C50B1F12001BFF4F7AF78
:1004A000090728BFA0E80C5048BF0CC05DF804EB5A
:1004B000890028BF40F8042B08BF704748BF20F8C8
:1004C000022B11F0804F18BF00F8012B70477047C6
:1004D0007047704770472DE9F0470D4699469246A0
:1004E000044600F124080168880604D5E06921F07B
:1004F0001001216000E00120A84201DD471B00E05F
:100500000027A1697A1902EB0900081AA061207876
:10051000C00602D42046FFF78BFE002608E0D4E98F
:1005200001211AF806009047206A401C761C2062C0
:100530004E45F4DB2078C0060AD52046FFF778FE4A
:1005400006E0D4E9012130209047206A401C206257
:10055000381EA7F10107F4DC07E0D4E9012118F8FF
:1005600005009047206A401C2062281EA5F1010565
:10057000F3DC2046FFF772FE2078000602D5022049
:10058000BDE8F0870120FBE701694A1C0261087899
:10059000704700B58FB0CDE90131002105910549C3
:1005A0007944CDE9031011466846FFF7A5FE0FB068
:1005B00000BD0000E5FFFFFF074B70B50D467B4413
:1005C000FFF7E7FF0446284600F008F810B14FF0A7
:1005D000FF3070BD204670BDC7290000007B00F0D1
:1005E0008000704700487047A80500207546FFF757
:1005F000F9FFAE4605006946534620F007008546E0
:1006000018B020B5FFF7F4FDBDE820404FF000061C
:100610004FF000074FF000084FF0000B21F00701EA
:10062000AC46ACE8C009ACE8C009ACE8C009ACE82D
:10063000C0098D46704710B50446AFF300802046D0
:10064000BDE81040FFF7C0BD70B504460068816882
:10065000C943C90717D1816821F00101816001F008
:1006600011F805460AE000BF01F00CF8401B022813
:1006700004D920688068C043C00706D0206880681D
:10068000C043C007F0D0002070BDA06A40F0100049
:10069000A062E06A40F00100E062012070BD10B588
:1006A0000146406A826A12F0500F05D0006A026B60
:1006B000BDE8104008461047816A41F4007181622C
:1006C00001688968C1F3424107290CD1017B51B906
:1006D000816A21F480718162816AC90403D4816ACC
:1006E00041F00101816200F077F910BD10B5406A58
:1006F000816A41F040018162C16A41F00401C16236
:1007000000F0CDF910BD10B5406A00F0C7F910BD7A
:10071000F8B500260446009600688168C943C907F9
:100720002DD0816841F001018160164816490068AA
:10073000B0FBF1F000E0401E00900028FBD100F07B
:10074000A1FF054616E000BF00F09CFF401B0228F9
:1007500010D920688068C043C0070BD0A06A40F061
:100760001000A062E06A40F00100E06284F82460BA
:100770000120F8BD20688068C043C007E4D1002094
:10078000F8BD00002000002040420F000EB5694671
:1007900000900120019005200290094800F09EF889
:1007A00008B100F02DF8064800F014FB4FF0FF31BF
:1007B000034800F071FA024800F072F980B20EBDF1
:1007C00044020020FEE70000014800F0A5BC000044
:1007D0007402002030B590F840500124AC40C56B45
:1007E0006C60046863604368102B036803D09960F1
:1007F0000068C26030BD9A600068C16030BD70475B
:1008000072B6FEE7F8B500250446009590F824007E
:10081000012808D0012084F824002046FFF714FFA7
:10082000060002D053E00220F8BDA06A20F48850F0
:1008300040F00200A062022000F0C2FF26490968D1
:10084000B1FBF0F0400000E0401E00900028FBD11A
:100850002046FFF75DFF2068816841F00801816054
:1008600000F010FF074608E000F00CFFC01B0A284C
:1008700003D920688068000715D4206880680007C5
:10088000F2D42068816841F00401816000F0FAFE32
:10089000074612E000F0F6FEC01B0A280DD92068BA
:1008A0008068400709D5A06A20F0020040F01000DF
:1008B000A06284F824500120F8BD206880684007B9
:1008C000E8D4A06A20F0020040F00100A06284F8A1
:1008D00024503046F8BD000020000020F8B5002468
:1008E000009490F824202546012A12D0012280F895
:1008F00024204A681F23072A0DD20668776B521EF0
:1009000002EB820293409F430B6893401F4377633F
:1009100019E00220F8BD06680D2A0AD2376BD21FF3
:1009200002EB820293409F430B6893401F4337635F
:1009300009E0F76A0D3A02EB820293409F430B688D
:1009400093401F43F7620A68072306680A2A0AD3FE
:10095000F7680A3A02EB420293409F438B68934048
:100960001F43F76008E0376902EB420293409F4360
:100970008B6893401F4337610A68102A01D0112AFF
:1009800020D1124B02689A4217D193681B0219D4E6
:10099000936843F4000393600968102912D10C494D
:1009A0000C4A0968B1FBF2F101EB8101490000E05A
:1009B000491E00910029FBD104E0816A41F0200129
:1009C0008162012480F824502046F8BD00240140B3
:1009D0002000002040420F0070B52D4CA06810B9D7
:1009E00000F050FEA0802B4901F194000A88828318
:1009F0004A8802838A888282CA8802820A8982811E
:100A00004A8902818A898280CA8902800A8A428050
:100A10004A8AC2808A8A4281CA8AC2810A8B4282F9
:100A20004A8BC2828A8B4283C98BC1835FF00001EB
:100A3000C1F10F0230F8113030F8125020F8115087
:100A4000491C20F812300829F2DB134BA268002160
:100A500001EB021530F81160491C23F815601029CC
:100A6000F6DB521CA260102A0BD04FF4FA7002F091
:100A70007DFABDE870400749102201F1200000F026
:100A800009BA00F0FFFD012020800020A06070BDA9
:100A9000000000202402002024000020704770473E
:100AA0000068C06C704700002DE9F04104004FF071
:100AB00000057FD0A06A002628B9E66284F8246089
:100AC000204600F081F82046FFF7BEFDA16AC90666
:100AD00000D420B1A06A40F01000A0626AE0A16AD0
:100AE00021F4885141F00201A162334923688B420D
:100AF000E16904D1B1F5402F01D14FF40021277BEA
:100B00004FF4807C41EA470261680A43A16861456D
:100B100008D0012906D0002194F814E0BEF1010F9D
:100B200002D00AE06146F7E7C7B1A76A47F020079D
:100B3000A762E76A47F00107E7625F6827F4694741
:100B40000F435F60236899681C4F394011439960D7
:100B5000A16861450BD0012909D00CE0DFF860E005
:100B6000A7690EEB47370F4347F40061E5E7218A99
:100B70000D05A5F580152168CB6A23F470032B437E
:100B8000CB62216889680F4B1940914208D1E66217
:100B9000A16A21F0020141F00101A162BDE8F081EA
:100BA000A06A20F0020040F01000A062E06A40F06D
:100BB0000100E0620120F1E7003C0140FDF7E1FFA8
:100BC00000E0FFFFFE0E1FFF70B586B00025064651
:100BD00000950195029503950068284988424BD1FC
:100BE0002749886940F400708861886900F40070C2
:100BF0000490886940F010008861886900F0100056
:100C00000490886940F004008861886900F004005D
:100C10000490886940F0080088618869032400F026
:100C2000080004903F20CDE900046946154800F013
:100C30001FFCFF20CDE900046946134800F018FCB2
:100C4000009469461148019400F012FC114C1048C0
:100C5000C4E900058020C4E9025040002061800002
:100C6000C4E90505C000E061204600F079FB08B149
:100C7000FFF7C6FD3462666206B070BD0024014015
:100C8000001002400010014000080140000C01402B
:100C900008000240740200202DE9F84300270D46A9
:100CA0000446009700F0EEFC804620688168C90584
:100CB00008D5A06A40F02000A06284F824700120CA
:100CC000BDE8F8834168C90503D4C06A10F4700F09
:100CD0002AD0022000F074FD3B490968B1FBF0F610
:100CE0002068036939490B424FEA61014FEAA112BA
:100CF0001FD1C3684FEA611C13EA0C0F19D10369B5
:100D00000B4225D1C068104222D1142023E0681C78
:100D10000AD02DB100F0B6FCA0EB0800A84203D920
:100D200020680068800725D5206800688007EED518
:100D30002DE003690B4202D1C168114206D002695D
:100D400023490A4206D1C068084203D1542002E078
:100D5000292000E0FC204643009816E0681C11D0D2
:100D60002DB100F08FFCA0EB0800A8420AD9009832
:100D7000B04207D2A06A40F00400A06284F8247058
:100D800003209DE70098401C0090B042E6D3216804
:100D90006FF012000860A06A40F40070A062206842
:100DA0008068C0F3424007280CD1207B50B9A06A6C
:100DB00020F48070A062A06AC00403D4A06A40F04E
:100DC0000100A06200207BE720000020244992243B
:100DD0004992240070B5044690F8240001280DD0F3
:100DE000012084F824002046FFF792FC02004FF017
:100DF000000005D084F82400104670BD022070BDAC
:100E0000A16A40F20123994341F48071A1621F4D10
:100E100023681F49AB4218D10E6816F4702F14D006
:100E2000A66A46F48016A6620E68760505D5A66AFF
:100E300026F4005646F48056A662A66AF6040AD541
:100E4000E66A26F00606E66206E0A66A26F4801642
:100E5000A6625E68E9E7E06284F824006FF00200B1
:100E6000186020688368C3F34243072B05D1A8426A
:100E700008D1096811F4702F04D0816841F4801101
:100E80008160B9E7816841F4A001F9E700280140D9
:100E9000042401402DE9F047894604463B49006897
:100EA0003B4F0E1D9046884201D0B84207D13068B2
:100EB00010F4702F03D001252846BDE8F08794F880
:100EC000240001280CD0012084F824002046FFF7DC
:100ED0001FFC05004FF0000004D084F82400EBE76D
:100EE0000220EAE7A16A40F60162914341F4807171
:100EF000A1622168B94218D1326812F4702F14D05F
:100F0000A16A41F48011A1623168490505D5A16A41
:100F100021F4005141F48051A162A16AC9040AD5AB
:100F2000E16A21F00601E16206E0A26A22F4801281
:100F3000A2624968E9E7E06284F82400216A154862
:100F40008862216A1448C862216A144808632168CB
:100F50006FF0020008602068816841F48071816050
:100F6000216843464A464C31206A00F037FA20682F
:100F70008168C1F342410729816803D041F480119F
:100F8000816099E741F4A001FAE7000000240140E4
:100F9000002801409F06000807070008ED0600082A
:100FA00010B590F821100022022905D00421816398
:100FB00080F82020012010BD01680B6823F00E038B
:100FC0000B6001680B6823F001030B6090F8403060
:100FD000C46B012101FA03F3636080F8211080F8EB
:100FE0002020104610BD00002DE9F05F90F8211080
:100FF0000024022903D004218163012485E00168D3
:101000000A6822F00E020A6001680A6822F00102F2
:101010000A603F4E3E4FB215DFF8F4C0DFF8F090A3
:10102000DFF8ECA0DFF8E8B0DFF8E4E00168783F33
:1010300013011502ACF1640CA9F15009AAF13C0AA4
:10104000ABF1280BAEF1140E4FF48018B14227D942
:10105000B9420ED0614512D049451DD0514518D036
:10106000594518D0714501D1424615E0294EB1428B
:1010700001D1012210E0274E1436B14201D11022D5
:101080000AE0244E2836B14206D0224A3C32914230
:1010900001D11A4600E02A461E49091F0A602BE0CA
:1010A000B94213D0614517D0494522D051451DD0D2
:1010B00059451DD0714501D142461AE0B14202D1D5
:1010C0004FF0807215E0134EB14201D1012210E0C1
:1010D000104E1436B14201D110220AE00D4E2836CE
:1010E000B14206D00B4A3C32914201D11A4600E08F
:1010F0002A46074980394A60012180F821100021E1
:1011000080F82010416B01B188472046BDE8F09F70
:1011100080000240080402402DE9F05FC16B0A68BC
:1011200001680B68046C4FF0040808FA04F8844D59
:10113000844E854FDFF814C2DFF81492DFF814A252
:10114000DFF814B2DFF814E218EA020F65D05FEAA4
:10115000437862D50A68920603D40A6822F0040232
:101160000A60DFF8F0814FF48062016808F114082A
:1011700013011402414524D9A9420DD0B1420FD028
:10118000B9421AD0614515D0494515D0514501D114
:10119000120312E0594501D104220EE0714501D13C
:1011A00040220AE06D4D1435A94206D06B4A283220
:1011B000914201D11A4600E022466749091F0A60A0
:1011C00029E0A94213D0B14215D0B94220D06145DF
:1011D0001BD049451BD0514502D14FF4800217E086
:1011E000414502D14FF0806212E0594501D10422FD
:1011F0000EE0714501D140220AE0584D1435A94254
:1012000006D0564A2832914201D11A4600E02246C1
:101210004B4908394A60C16A71E04FF0020808FA88
:1012200004F818EA020F70D05FEA83786DD50A6877
:10123000920606D40A6822F00A020A60012180F8A8
:101240002110DFF810814FF40072016808F11408D2
:1012500013011402414524D9A9420DD0B1420FD047
:10126000B9421AD0614515D0494515D0514501D133
:10127000120312E0594501D102220EE0714501D15D
:1012800020220AE0354D1435A94206D0334A2832CF
:10129000914201D11A4600E022462F49091F0A60F7
:1012A00029E0A94213D0B14215D0B94220D06145FE
:1012B0001BD049451BD0514502D14FF4001217E015
:1012C000414502D14FF0007212E0594501D102228E
:1012D0000EE0714501D120220AE0204D1435A942CB
:1012E00006D01E4A2832914201D11A4600E0224619
:1012F000134908394A60002180F82010816A0029CA
:101300001CD0BDE8F05F0847FFE70825A54015425F
:1013100014D01A0712D50A6822F00E020A6090F85B
:101320004020C36B012101FA02F25A60816380F808
:101330002110002180F82010016BE0E7BDE8F09F4C
:10134000080002401C0002403000024044000240FD
:10135000580002406C000240080402401C04024095
:1013600030B560B11A4B026814219A4209D2194B68
:101370001344B3FBF1F18900016417490AE001202D
:1013800030BD134B5B421344B3FBF1F189000164A0
:101390000F490839C163022180F82110136843F610
:1013A000F0718B43F0E901142143D0E902452C434D
:1013B000214304692143446921438469214319433A
:1013C000116000214163012242770177084630BD58
:1013D00008040240F8FFFDBF0000024070B504465B
:1013E00090F82000002501280CD0012084F820006E
:1013F00094F821600020012E06D084F820000225F8
:10140000284670BD022070BD022684F82160A063CA
:101410002068066826F0010606602046FFF7DAF924
:10142000E06A00282068016802D041F00E0106E061
:1014300021F0040101602068016841F00A010160A7
:101440002068016841F001010160D9E770B50446E8
:1014500000F018F90546601C02D0044800780444E6
:1014600000F010F9401BA042FAD370BD1400002018
:101470002DE9F84FDFF8C891002409F1040A0AF1B8
:10148000040B23460F270BF1040ED1E00125A540E4
:1014900006EA0502AA4276D1DFF8A8C14E68A6EB9B
:1014A0000C0866452BD00DDC032E34D005DC36B39A
:1014B000012E19D0022E2FD11BE0112E16D0122E84
:1014C0002AD119E0B8F5881F19D006DCB8F5803F9D
:1014D00015D0B8F5801F1FD111E0B8F5001F0ED050
:1014E000B8F5041F18D10AE0CB6815E0CB681B1DC6
:1014F00012E0CB6808330FE0CB680C330CE08B684C
:101500002BB1012B4FF0080303D0456104E0042305
:1015100002E0056100E00023FF2A01D8064601E051
:1015200000F104064FEA840501D9A5F12005D6F89B
:10153000008007FA05FC28EA0C0803FA05F548EADA
:101540000508C6F800804D68ED0070D53E4DAE69C7
:1015500046F00106AE61AD6924F0030605F0010511
:1015600000953A4D06EB050CDCF80850A607360F3F
:1015700007FA06F825EA0805DFF8D480404503D1CC
:101580004FF0000825E052E0DFF8C880404502D166
:101590004FF001081DE0DFF8C080404502D14FF058
:1015A000020816E0DFF8B480404502D14FF003088E
:1015B0000FE0DFF8AC80404502D14FF0040808E0AE
:1015C000DFF8A080404502D14FF0050801E04FF060
:1015D000060808FA06F848EA0508CCF808804D68BD
:1015E000D9F80060ED034D4601D5164300E096435F
:1015F0002E604D68DAF80060AD03554601D51643FC
:1016000000E096432E604D68DBF80060ED025D4619
:1016100001D5164300E096432E604D68DEF8006069
:10162000AD02754601D5164300E096432E60641C5A
:101630000A681646E2407FF429AFBDE8F88F000043
:1016400000040140000011100010024000000140A1
:1016500000080140000C014000100140001401404E
:1016600000180140001C0140C26821EA02030A4040
:1016700043EA0241016170470AB101617047090400
:10168000FBE700000148806870470000140000205C
:10169000024881680278114481607047140000207C
:1016A000074810B5016841F010010160032000F007
:1016B00075F80F2000F006F800F024F8002010BDA7
:1016C0000020024070B50D4D04464FF47A71287821
:1016D000B1FBF0F00A490968B1FBF0F000F0D2FB71
:1016E00048B9102C07D200222146501E00F036F8CF
:1016F00000206C6070BD012070BD0000140000204F
:10170000200000200C4808B5816941F00101816189
:10171000816901F001010091C16941F08051C1610D
:10172000C06900F0805000900448416821F0E061F9
:1017300041F00071416008BD00100240000001400E
:10174000002809DB00F01F020121914040098000C0
:1017500000F1E020C0F8001170470000F0B40E4B1B
:101760001B680C46C3F30223C3F10705042D00D9FF
:101770000425191D072901D2002300E0DB1E0126E4
:1017800006FA05F1491E214099409E40761E1640FA
:101790003143F0BC01F0D1BB0CED00E0064900F094
:1017A000070208684FF6FF03184040EA0220034A88
:1017B00010430860704700000CED00E00000FA05DF
:1017C00010B52CA401461DCC86B08DE81D002DA0BF
:1017D0002D4C00680490002004292FD00BDC012937
:1017E0002FD0022928D100F077F96168C1F3813147
:1017F000491C49001EE0082920D010291CD161682D
:101800002268D20118D5C1F38342C9031DF8020032
:1018100009D5616804AAC1F34041515C1B4AB2FB7F
:10182000F1F1484301E01A4948436168490203D491
:1018300040000321B0FBF1F006B010BD00F05CF9F0
:10184000FAE7226AC2F30121012903D1920701D5E7
:10185000C803F1E7022905D1626A920702D549F669
:101860004040E9E70329E7D121688903E4D54FF235
:101870002440E1E702030405060708090A0B0C0DE2
:101880000E0F1010010200000010024000127A003A
:1018900000093D002DE9F84305460078354CC007A6
:1018A00054D0E0690026C00008D4E06940F08050C0
:1018B000E061E069012600F0805000902E48016848
:1018C000C90512D40168804641F480710160FFF7B8
:1018D000D9FE074605E000BFFFF7D4FEC01B642811
:1018E00023D8D8F80000C005F6D5206A10F440705F
:1018F00021D0A98801F4407181421CD0206A1F497F
:10190000012220F440700A6000220A602062C007B1
:1019100011D0FFF7B7FE074641F2883808E000BF54
:10192000FFF7B0FEC11B414502D90320BDE8F88393
:10193000206A8007F4D5206A696820F44070084363
:1019400020621EB1E06920F08050E06128788007B5
:1019500005D56068A96820F4404008436060287895
:10196000C00605D56068696920F48000084360609E
:101970000020DBE7001002400070004040044242BB
:101980002DE9F0470F46050061D0434E306800F066
:101990000700B84209D2306820F0070038433060B1
:1019A000306800F00700B84251D128683B4C8107ED
:1019B00012D5400703D5606840F4E0606060287885
:1019C000000703D5606840F4605060606068A968F3
:1019D00020F0F000084360602878C00728D06868CD
:1019E000012810D02168022810D0890700292EDA9A
:1019F000616821F0030101436160FFF743FE804607
:101A000041F288390DE021688903EFE78901EDE7AC
:101A1000FFF738FEA0EB0801494502D90320BDE8D5
:101A2000F0876068696800F00C00B0EB810FEFD1BF
:101A3000306800F00700B8420BD9306820F007008A
:101A400038433060306800F00700B84201D0012010
:101A5000E5E72878400705D56068E96820F4E0608C
:101A6000084360602878000706D56068296920F47B
:101A7000605040EAC100606000F03EF86168084ACA
:101A8000C1F30311515CC84006490860064800686C
:101A9000FFF718FE0020C2E70020024000100240BD
:101AA00018320008200000201800002001480068BB
:101AB000704700002000002004480549006849687C
:101AC000044AC1F30221515CC84070472000002045
:101AD000001002402832000804480549006849689F
:101AE000044AC1F3C221515CC84070472000002065
:101AF000001002402832000812A185B00FC98DE8FD
:101B00000F0014A0144A006804905168134801F0B3
:101B10000C03042B10D0082B0ED1C1F38343C9034F
:101B20001DF803000AD5516804AAC1F34041515C75
:101B30000A4A5043B0FBF1F005B0704708494843EA
:101B4000FAE7000002030405060708090A0B0C0D5A
:101B50000E0F1010010200000010024000127A0067
:101B600000093D002DE9F84F040070D02078C04DE9
:101B7000C00749D06868C0F38100012807D06868B1
:101B8000C0F38100022809D16868C00306D528681F
:101B9000800339D560680028E7D035E06068B0F58B
:101BA000803F0BD010B1B0F5A02F11D0286820F4E1
:101BB00080302860286820F4802002E0286840F403
:101BC00080302860606890B1FFF75CFD06460AE04F
:101BD000286840F480202860F0E700BFFFF752FD3E
:101BE000801B642873D828688003F7D50CE0FFF7C2
:101BF00049FD064605E000BFFFF744FD801B642851
:101C0000F0D828688003F7D420789A4E80074FF0E8
:101C100001094FF0000839D5686810F00C0F07D0A3
:101C20006868C0F38100022809D16868C00306D43F
:101C30002868800714D52069012808D110E02069A0
:101C4000B0B1C6F80090FFF71DFD074605E00AE1B8
:101C5000FFF718FDC01B0228C4D828688007F7D5F5
:101C60002868616920F0F80040EAC10028600DE0B2
:101C7000C6F80080FFF706FD074604E0FFF702FD07
:101C8000C01B022823D828688007F7D420780007D3
:101C90002CD57948A169D9B1C0F80090FFF7F2FCC2
:101CA000074604E0FFF7EEFCC01B02280FD8686A65
:101CB0008007F7D571484FF4FA510068B0FBF1F096
:101CC000009000BF0098411E0091FAD20EE080E023
:101CD000C0F80080FFF7D6FC074604E0FFF7D2FC0F
:101CE000C01B022875D8686A8007F7D4207840079F
:101CF00060D5E8690027C00008D4E86940F080504A
:101D0000E861E869012700F0805000905C480168B4
:101D1000C90513D40168834641F480710160FFF75F
:101D2000B1FC824606E000BFFFF7ACFCA0EB0A0066
:101D300064284ED8DBF80000C005F5D5E06801281E
:101D40000AD008B1052813D0286A20F001002862C3
:101D5000286A20F0040002E0286A40F001002862AE
:101D6000E06841F2883B98B1FFF78CFC82460BE0BB
:101D7000286A40F004002862EEE700BFFFF782FC0B
:101D8000A0EB0A0159455AD8286A8007F6D50CE01D
:101D9000FFF778FC824605E0FFF774FCA0EB0A0130
:101DA00059454CD8286A8007F6D41FB1E86920F05D
:101DB0008050E861E06988B36968C1F38101022954
:101DC00044D00228C6F8608004D0FFF75BFC0446CC
:101DD00038E034E0FFF756FC074604E0FFF752FC1A
:101DE000C01B02282BD828688001F7D4206AB0F5E0
:101DF000803F05D16868A16820F40030084368601E
:101E0000D4E908010843696821F474110843686043
:101E1000C6F86090FFF736FC044606E025E000BFF8
:101E2000FFF730FC001B022809D828688001F7D58D
:101E30001BE000BFFFF726FC001B022802D903208D
:101E4000BDE8F88F28688001F4D40EE00128F7D0AF
:101E50006868226A00F48031914204D1616A00F41A
:101E60007010884201D00120EAE70020E8E7000076
:101E70000010024000004242800442422000002044
:101E80000070004010B5401EB0F1807F01D30120EA
:101E900010BD4FF0E02460610F21601701F04DF894
:101EA0000020A06107202061002010BD704770470E
:101EB00070B590F83C20012A2CD0012480F83C40D9
:101EC000022280F83D2003685A689D6822F070065F
:101ED0000A6832435A60104B02689A420ED00F4B88
:101EE0009A420BD0B2F1804F08D00D4B9A4205D0E8
:101EF0000C4B9A4202D00C4B9A4204D1496825F00F
:101F000080031943916080F83D40002180F83C1027
:101F1000084670BD022070BD002C01400034014015
:101F20000004004000080040000C004010B5040010
:101F300003D094F83D0010B107E0012010BD00204F
:101F400084F83C00204600F01FF8022084F83D0091
:101F5000211D206800F044FE012084F8460084F82A
:101F60003E0084F83F0084F8400084F8410084F883
:101F7000420084F8430084F8440084F8450084F863
:101F80003D00002010BD000008B50068B0F1804F92
:101F900012D10A48C16941F00101C161C069002242
:101FA00000F00100009002211C20FFF7D7FBBDE8E4
:101FB00008401C20FFF7C4BB08BD00000010024011
:101FC00090F83D10012901D001207047022180F8CE
:101FD0003D100168CA6842F00102CA6000680E49FB
:101FE00088420ED00D4988420BD0B0F1804F08D006
:101FF0000B49884205D00B49884202D00A498842E1
:1020000004D1816801F00701062903D0016841F07D
:102010000101016000207047002C014000340140A4
:102020000004004000080040000C00400168CA683D
:1020300022F00102CA6001680A6A41F211131A42D1
:1020400007D10A6A9B101A4203D10A6822F00102E2
:102050000A60012180F83D100020704770B50446E9
:1020600090F83C00012817D0012584F83C5002204C
:1020700084F83D002068826822F0770222F47F42D3
:1020800082600868502830D00DDC20284DD005DC57
:1020900098B310283BD148E0022070BD302844D0CE
:1020A000402834D139E0602828D0702806D0B0F517
:1020B000805F2CD0B0F5005F29D10AE0CB68D1E970
:1020C0000121206800F0D2FD2068816841F077018D
:1020D00009E0CB68D1E90121206800F0C7FD206844
:1020E000816841F48041816011E0CA6849682068D4
:1020F00000F0CEFD5021206807E016E0CA6849686C
:10210000206800F0D6FD6021206800F0B9FD84F859
:102110003D50002084F83C0070BDCA6849682068C2
:1021200000F0B6FD40212068EFE722680146104626
:10213000EBE7704770B50446006801694FF0000591
:10214000C943890715D4C168C943890711D4E91E59
:10215000016101202077206880698007204602D035
:10216000FFF7E7FF04E000F098F8204600F096F84B
:10217000257720680169C943490717D4C168C94355
:10218000490713D46FF00401016102202077206811
:10219000806910F4407F204602D0FFF7CAFF04E0B8
:1021A00000F07BF8204600F079F825772068016977
:1021B000C943090716D4C168C943090712D46FF08F
:1021C00008010161042020772068C069800720464B
:1021D00002D0FFF7AEFF04E000F05FF8204600F009
:1021E0005DF8257720680169C943C90617D4C1681D
:1021F000C943C90613D46FF010010161082020778C
:102200002068C06910F4407F204602D0FFF791FF9C
:1022100004E000F042F8204600F040F825772068FE
:102220000169C943C90708D1C168C943C90704D1B5
:10223000891E0161204600F033F820680169C94316
:10224000090609D4C168C943090605D46FF08001A5
:1022500001612046FFF72AFE20680169C94349064B
:1022600009D4C168C943490605D46FF04001016132
:10227000204600F071F820680169C94389060BD433
:10228000C168C943890607D46FF020010161204667
:10229000BDE87040FFF70BBE70BD7047704700008F
:1022A0007CB5284C10216088401C60802648FFF7D0
:1022B000DBF92088012843D1FFF7E4F9234B002004
:1022C000208003F52D7100BF33F81020150A01F8A6
:1022D000105001EB4005401C6A70FF28F4DD4FF6FA
:1022E000FF752B464FF4007219491A4800F04CFA5A
:1022F00060882B46010A8DF804108DF80500022233
:1023000001A9144800F040FAFD208DF80000FE20DD
:102310008DF80100FF208DF802002B46032269464C
:102320000C4800F031FA4FF4FA7000F01FFE084933
:102330001022B43901F12000FEF7ACFDFFF7A2F93D
:102340007CBD000000000020000C014024000020A3
:10235000D8020020640500207047704770470000D5
:10236000F8B5026804461068D168536910F00F0F81
:102370004FF0000553D003F0010601F49077374386
:102380005FD0C20705D0CA0503D5226C42F0010216
:102390002264420705D5DA0703D0226C42F002021C
:1023A0002264820705D5DA0703D0226C42F00402CA
:1023B0002264020707D501F02002324303D0226CC9
:1023C00042F008022264226C002A34D0800604D530
:1023D000880602D5204600F09EFC20684069216CEA
:1023E000C0F38010090700D430B3204600F07BFC16
:1023F0002068416949061BD5416921F040014161CE
:10240000A06BA8B158494163A06BFEF7EDFD002811
:1024100011D0A06B416B01B0BDE8F04008478306C6
:102420000FD58B060DD52046BDE8F84000F073BCF3
:102430002046FFF793FFF8BD2046FFF78FFF256486
:10244000F8BD266B2023012E52D1C60650D5CE06EC
:102450004ED5106850680090506940062AD5A16B8F
:10246000086840680004000CEAD0A68D8642E7D9CF
:10247000E0858869202818D0D06820F48070D0606A
:102480002068416921F0010141612068416921F022
:102490004001416184F83E3025632068C16821F025
:1024A0001001C160A06BFEF77BFDA08DE18D401A8D
:1024B00081B219E0A08DE18D401A81B2E08D002833
:1024C000BED00029BCD0D06820F49070D0602068C5
:1024D000426922F00102426184F83E30256320689F
:1024E000C26822F01002C2602046FFF736FFF8BD36
:1024F00005062BD50D0629D594F83D002128F6D1E7
:10250000A068B0F5805F01D12069B0B1206A411C9C
:102510002162216800784860E08C401E0004000CB5
:10252000E084E4D12068C16821F08001C1602068A6
:10253000C16841F04001C160F8BD206A0088C0F365
:1025400008005060206A801C2062E5E74006F3D551
:102550004806F1D5D168204621F04001D16084F8C9
:102560003D3000F06AF9F8BDD72C000870B50400C2
:1025700004D094F83D00002510B106E0012070BDA4
:1025800084F83C50204600F023F8242084F83D00D5
:102590002068C16821F40051C160204600F016FC9B
:1025A0002068016921F4904101612068416921F0AE
:1025B0002A0141612068C16841F40051C16025646D
:1025C000202084F83D0084F83E00002070BD00000B
:1025D00070B586B0002400940194029403940368BB
:1025E0002E482D4E022103220515B34226D18369C0
:1025F00043F480438361836903F4804304938369D4
:1026000043F0040383618069254E00F004000490C8
:102610000802CDE90001039269463046FEF728FF23
:10262000CDE90054694630460294FEF721FF0022AE
:1026300011462520FFF792F8252028E0194EB342D5
:1026400027D1C36943F48023C361C36903F48023A2
:102650000493836943F0080383618069CDE90051E5
:1026600000F00800CDE903200F4D69462846FEF72B
:10267000FFFEE814CDE90004694628460294FEF7FF
:10268000F7FE002211462720FFF768F82720FFF702
:1026900057F806B070BD000000380140001002403D
:1026A0000008014000480040000C014090F83E3016
:1026B000202B0ED159B152B190F83C30012B08D0EB
:1026C000012380F83C300023036300F0DBBB0120D2
:1026D000704702207047000010B5044613A0FDF7B4
:1026E0009BFD1A49206888421ED119A0FDF794FD70
:1026F0001C4C1DA02178FDF78FFD012221461F48AB
:10270000FFF7D4FF2078322809D031280CD11C499A
:1027100000200880BDE810401A48FFF751BCBDE812
:1027200010401848FFF782BC10BD0000656E74654C
:10273000722048414C5F554152545F527843706C4F
:102740007443616C6C6261636B0A00000048004076
:102750006875617274203D3D206875617274330A3A
:102760000000000010000020756172743372656310
:10277000764275662025640A00000000640500208A
:1027800002000020D80400202DE9F843044690F808
:102790003D001F4616460D4620284CD1C5B1BEB19E
:1027A00094F83C00012846D0012084F83C004FF00A
:1027B0000008C4F84080212084F83D00FEF762FF45
:1027C000A6848146E684A068B0F5805F03D004E06B
:1027D0000120BDE8F883206928B12E465FF000058E
:1027E00084F83C800EE00026FAE78021204600F0C5
:1027F00064FBA0B9AEB116F8010B21684860E08C0B
:10280000401EE084E08C4B464FF000020097002809
:10281000EBD14FF04001204600F04FFB30B10320D8
:10282000D7E735F8020BC0F30800E6E7202084F86C
:102830003D000020CDE70220CBE77047FEE7000017
:10284000FEB500245C48009401945A49029401604A
:102850008915816004730475102505614FF46021AA
:102860004460C161FEF720F908B1FDF7C9FF0126F8
:10287000CDE90046694650480294FEF72FF808B1AA
:10288000FDF7BEFF0224CDE9006469464A48FEF721
:1028900025F808B1FDF7B4FF0094032469464648C3
:1028A0000194FEF71BF808B1FDF7AAFF0094042479
:1028B000694641480194FEF711F808B1FDF7A0FF01
:1028C0000094052469463C480194FEF707F808B1D6
:1028D000FDF796FF00940624694637480194FDF7FA
:1028E000FDFF08B1FDF78CFF0094072469463248CC
:1028F0000194FDF7F3FF08B1FDF782FF009408246F
:1029000069462D480194FDF7E9FF08B1FDF778FF0E
:1029100000940924694628480194FDF7DFFF08B1B7
:10292000FDF76EFF00940A24694623480194FDF7E1
:10293000D5FF08B1FDF764FF00940B2469461E48DB
:102940000194FDF7CBFF08B1FDF75AFF00940C246A
:10295000694619480194FDF7C1FF08B1FDF750FF22
:1029600000940D24694614480194FDF7B7FF08B19F
:10297000FDF746FF00940E2469460F480194FDF7C9
:10298000ADFF08B1FDF73CFF00940F2469460A48EB
:102990000194FDF7A3FF08B1FDF732FF6946064831
:1029A000CDE90045FDF79AFF002801D0FDF728FF8B
:1029B000FEBD00000024014044020020094808B583
:1029C000416941F0010141614069052200F00100C7
:1029D000009002210B20FEF7C1FEBDE808400B204D
:1029E000FEF7AEBE0010024030B585B000241F488F
:1029F0000094019402940394816941F02001816163
:102A0000816901F020010491816941F01001816127
:102A1000816901F010010491816941F00401816133
:102A2000816901F004010491816941F0080181612B
:102A300080690F4D00F00800049000224FF204015D
:102A40002846FEF719FE012238212846FEF714FE1B
:102A50004FF23C0000900120CDE9010402200390D8
:102A600069462846FEF704FD05B030BD001002405F
:102A7000000C014010B586B0002417480094019462
:102A80000294039404944FF080410594016041F650
:102A90001F41C0E9011440F22B11C0E90314802149
:102AA0008161FFF743FA08B1FDF7AAFE4FF48050A9
:102AB000009069460848FFF7D1FA08B1FDF7A0FE7B
:102AC000049404A904480594FFF7F2F9002801D002
:102AD000FDF796FE06B010BDD80400200C4810B5D6
:102AE0000A4901604FF4E1314160002181600C220C
:102AF000C160C0E904128161C161FFF737FD0028A0
:102B000003D0BDE81040FDF77BBE10BD003801408A
:102B1000200500200C4810B50A4901604FF4E1215E
:102B20004160002181600C22C160C0E90412816112
:102B3000C161FFF71BFD002803D0BDE81040FDF781
:102B40005FBE10BD0048004064050020FEE7FEE7C0
:102B500070477047FEF79CBD30B595B02821684698
:102B6000FDF78EFC14210AA8FDF78AFC18210FA896
:102B7000FDF786FC01210804CDE90010002502952F
:102B800002240491CDE907404FF4E0100990684613
:102B9000FEF7E8FF08B172B6FEE70AA90F2081E848
:102BA00031004FF48060CDE90D0502210AA8FEF73F
:102BB000E7FE08B172B6FEE74FF4004011900F94A3
:102BC0000FA8FEF767FE002801D072B6FEE715B029
:102BD00030BD70470148FFF7ADBA0000D8040020AF
:102BE000F0B502681C4B1D4D1D4E1E4F1E4C4FF084
:102BF000804C984209D0A04207D0604505D0A84239
:102C000003D0B04201D0B84204D122F0700E4A681D
:102C100042EA0E02984209D0A04207D0604505D092
:102C2000A84203D0B04201D0B84203D122F440758B
:102C3000CA682A434D6922F080022A4302608A68EA
:102C4000C2620A688262984201D0A04201D1096939
:102C5000016301214161F0BD002C014000040040EE
:102C600000080040000C00400034014010B58468AA
:102C700042EA032224F47F440A432243826010BDC7
:102C8000826822F070020A4342F0070181607047B7
:102C900010B5036A046A24F001040462846924F014
:102CA000F00444EA021423F00A020A438461026237
:102CB00010BD10B5036A23F0100303628369046A30
:102CC00023F4704343EA023224F0A00343EA0111E3
:102CD0008261016210BD10B5406A0021C185C184C6
:102CE000FFF73CFB10BD0168CA6822F49072CA600D
:102CF00001684A6922F001024A61016B012904D18D
:102D00000168CA6822F01002CA60202180F83E10D3
:102D100000210163704708B590F83E10222901D0C8
:102D2000022008BD82684FF480539A4201D10169A4
:102D300021B1816A9A421BD04AB10AE00268816AD5
:102D40005268C2F308020A80816A891C08E002699D
:102D500072B10268526802F07F020A70816A491CEF
:102D60008162C18D491E0904090CC18503D019E097
:102D700002685268F1E70168CA6822F02002CA605E
:102D80000168CA6822F48072CA6001684A6922F048
:102D900001024A61202180F83E10016B012903D015
:102DA000FFF79AFC002008BD002101630168CA6892
:102DB00022F01002CA6001680A68D20602D50A68C9
:102DC00049680091818DFFF7C8FAEBE770B50446BA
:102DD00000680169E26821F44051114301612169F1
:102DE000A0680843616908432168CA6841F20C631E
:102DF0009A430243CA6020684169A26921F4407184
:102E0000114341611E492068884202D1FEF764FEE9
:102E100001E0FEF751FE00EBC00101EB001260681B
:102E200064218000B2FBF0F3B3FBF1F36FF01806FE
:102E30007343B2FBF0F5B2FBF0F605EB83053223EA
:102E400003EB0515B5FBF1F5B6FBF1F605F0F00562
:102E500005EB0615B2FBF0F6B2FBF0F0B0FBF1F0BB
:102E60006FF01802504306EB800003EB0010B0FB3C
:102E7000F1F0216800F00F002844886070BD000068
:102E80000038014081628285C285002101642222CE
:102E900080F83E2080F83C100168CA6842F48072D5
:102EA000CA6001684A6942F001024A610068C1686B
:102EB00041F02001C160002070472DE9F0419846A3
:102EC00017460E460446069D1DE0681C1BD02DB11A
:102ED000FEF7D8FBA0EB0800A84214D92068C1680F
:102EE00021F4D071C1602068416921F00101416184
:102EF000202084F83D0084F83E00002084F83C0047
:102F00000320BDE8F0812068006836EA000004D0A4
:102F10000020B842D9D00020F3E70120F9E70000F3
:102F20000148FFF71DBA0000200500200148FFF707
:102F300017BA000064050020FEE70907090E002803
:102F400004DB00F1E02080F80014704700F00F006F
:102F500000F1E02080F8141D704730380A2801D2B3
:102F600001207047002070477047000010B50446EC
:102F7000FEF79CFD0349B0FBF1F16143491EFDD210
:102F800010BD000000093D0004490A685206FCD546
:102F9000024AC1B2121D11607047000000380140A2
:102FA00088B0FEF77DFBFFF7D7FD00221146501ECB
:102FB000FEF7D4FBFFF718FDFFF700FDFFF740FC1D
:102FC000FFF78CFDFFF7A6FDFFF754FD4B48FDF71B
:102FD00019FC002000F0C0F80520FEF737FA102297
:102FE00047494648FDF756FF002220214548FEF795
:102FF00043FB012244494548FFF758FB6C4644A077
:10300000FDF70AF90025E8B200F0A6F80020FDF768
:10301000BDFBADF81C000120FDF7B8FBADF81800B2
:103020000220FDF7B3FBADF814000320FDF7AEFB63
:10303000ADF810000420FDF7A9FBADF80C00052049
:10304000FDF7A4FBADF808000620FDF79FFBADF8E7
:1030500004000720FDF79AFBADF800000820FDF7FB
:1030600095FBADF802000920FDF790FBADF80600D6
:103070000A20FDF78BFBADF80A000B20FDF786FB5D
:10308000ADF80E000C20FDF781FBADF812000D200D
:10309000FDF77CFBADF816000E20FDF777FBADF8D1
:1030A0001A000F20FDF772FBADF81E005FF0000064
:1030B000C0F10F0134F8102034F8113024F810302A
:1030C000401C24F811200828F2DB29461DA0FDF73A
:1030D000A3F800261DA034F81610FDF79DF8761C05
:1030E000102EF7DB1BA0FDF797F86D1C102D8ADB67
:1030F0004FF47A70FEF7AAF981E70000440200203D
:1031000024020020000C0140100000206405002073
:103110002A2A2A2A2A2A2A2A2A2A2A2A2A2A2A2A0F
:103120002A2A2A2A2A2A2A2A2A2A2A2A2A2A2A2AFF
:103130002A2A2A2A2A2A2A2A2A2A2A2A2A2A2A2AEF
:103140002A0D0A005B2532645D00000025356420ED
:10315000000000000D0A000010283AD2DFE800F05D
:10316000080A0C101517191B1D202326292D31358F
:10317000002313E0002314E0002315E0002002E008
:10318000002314E0012000F025B8002312E0002302
:1031900014E0002316E0002318E0012300220AE0D7
:1031A000012300220BE0012300220CE00123002276
:1031B0000DE0012301220021E0E70123012200218B
:1031C000E0E7012301220121D8E7012301220121A7
:1031D000D8E770472DE9F04115460E4F0C460246E0
:1031E0001E464FF480513846FEF746FA22467914BF
:1031F0003846FEF741FA2A464FF480413846FEF73A
:103200003BFA32463846BDE8F0414FF40041FEF744
:1032100033BA0000000C0140000000000000000074
:10322000010203040607080900000000010203046C
:10323000040000080000000000000002000100007F
:10324000100000006432000800000020240000008C
:103250006C0100088832000824000020E40B000004
:1032600088010008000000000000000000000000CD
:10327000000000000000000001000000100000003D
:08328000000000000024F4002E
:0400000508000131BD
:00000001FF
