:020000040800F2
:10000000280C0020490100086B29000891260008EF
:1000100069290008710800089D2D000800000000F3
:100020000000000000000000000000006F29000830
:10003000AB080008000000006D29000871290008C5
:100040006301000863010008630100086301000800
:1000500063010008630100086301000863010008F0
:1000600063010008630100086301000875080008C7
:1000700063010008630100086301000863010008D0
:1000800063010008630100086301000863010008C0
:1000900063010008630100086301000863010008B0
:1000A00063010008630100086301000863010008A0
:1000B000F1290008630100086301000863010008DA
:1000C0006301000863010008630100086301000880
:1000D00063010008052D000863010008112D0008C8
:1000E0006301000863010008630100086301000860
:1000F0006301000863010008630100086301000850
:10010000630100086301000863010008630100083F
:10011000630100086301000863010008630100082F
:10012000630100086301000863010008630100081F
:10013000DFF810D000F06AFA004800473D3C0008A4
:10014000AFF30080280C002006488047064800478F
:10015000FEE7FEE7FEE7FEE7FEE7FEE7FEE7FEE777
:10016000FEE7FEE7EF29000831010008202A04DB42
:10017000203A21FA02F00021704721FA02F3D04020
:10018000C2F1200291400843194670470048704769
:10019000103F000840EA01039B0703D009E008C9AB
:1001A000121F08C0042AFAD203E011F8013B00F83C
:1001B000013B521EF9D27047D2B201E000F8012B88
:1001C000491EFBD270470022F6E710B513460A46D7
:1001D00004461946FFF7F0FF204610BD30B505462E
:1001E0002A460B4612F8010B13F8014B08B1A04246
:1001F000F8D01CB1002802D06D1CF1E7284630BDB4
:10020000421C10F8011B0029FBD1801A704730B541
:100210000B46014600202022012409E021FA02F5C4
:100220009D4205D303FA02F5491B04FA02F528445E
:10023000151EA2F10102F1DC30BD2DE9F05F05468B
:10024000002092469B4688460646814640241BE095
:100250002846414647462246FFF788FF53465A46FE
:10026000C01A914110D311461846224600F0E0F919
:100270002D1A67EB01084F4622460120002100F0AD
:10028000D7F917EB00094E41201EA4F10104DFDC71
:10029000484631462A464346BDE8F09F2DE9FE4FC9
:1002A000804681EA0300C00F0C46009021F0004117
:1002B00023F00045B8EB0200A94105D24046214693
:1002C00090461C460B46024623F00040104347D0A0
:1002D000270DC7F30A00C3F30A510290401A019098
:1002E00040286BDAC3F3130040F4801B0098924659
:1002F00020B10023D2EB030A63EB0B0B01985946A4
:10030000C0F14002504600F093F906460D465046B3
:100310005946019A00F09BF910EB08006141002456
:1003200087EA115284EAE7731A4340D0009A62B315
:10033000019A012A4FEA075215DC001B61EB02010A
:100340004FF0004202EA0752CDE90042001C41F59D
:10035000801132462B4600F09BF903B0BDE8F08FC8
:1003600040462146F9E7001B61EB0201001C41F504
:10037000801300185B412018A2F5001747EB03011A
:1003800040EAD570B6196D4111E06D084FEA3606A6
:1003900045EAC0754FEA0752001B61EB0201001CE1
:1003A00041F5801149084FEA3000001951413246A9
:1003B0002B4603B0BDE8F04F00F05BB90098012276
:1003C00040000023D0EB020263EBE073009821466B
:1003D0004FEAE074B8EB000061EB0401E9E783F059
:1003E00000435BE781F0004158E72DE9FE4F81EAC9
:1003F000030404F0004421F0004100944FF0000B8E
:1004000023F0004350EA01045ED052EA03045BD0BB
:10041000C3F30A54C1F30A552C44A4F2F3340194F3
:10042000A0FB0254C1F3130141F48011C3F3130381
:1004300043F4801301FB024400FB034E840A970A35
:1004400044EA815447EA8357A4FB076802958D0A62
:1004500005FB07854FEA932C04FB0C542705029DEE
:100460004FEA065847EA1637B5EB08056EEB070C5E
:10047000870E920E47EA811742EA8312A7FB020118
:10048000B6EB0B0164EB00042B0D43EA0C335E1852
:1004900044EB1C50DA465146E7FB0201C5F3130456
:1004A0004FEA0B3343EA14534FEA0432019C43EA08
:1004B0000603A4F10C040294009CCDE900B400F002
:1004C000E7F803B0BDE8F08F00200146F9E72DE919
:1004D000F04D81EA030404F0004B21F0004514467E
:1004E0004FF0000A23F0004150EA050220D054EA00
:1004F00001021DD0C5F30A570246C5F31303C1F329
:100500001300C1F30A5640F4801543F48013A7EB9F
:100510000608101BD64608F2FD3873EB050002D31F
:1005200008F1010801E092185B41B8F1000F03DA0D
:1005300000200146BDE8F08D00204FF480110646F2
:1005400084460EE0171B73EB050705D3121B63EB04
:10055000050306434CEA010C49084FEA30009218A3
:100560005B4150EA0107EDD152EA030012D082EA62
:10057000040083EA0501084305D0101BAB4106D2F5
:100580000122002306E000224FF0004302E06FF05A
:10059000010253101AEB06004CEB085110EB0A0055
:1005A00041EB0B01BDE8F04D00F063B8C1F30A5216
:1005B000C1F3130140F2FF3341F480119A4202DA91
:1005C00000200146704740F233439A42A2F2334280
:1005D00002DC5242FFF7CABD00F02AB830B5041E53
:1005E00071F1000404DB4FF00044404264EB010170
:1005F000141E73F1000405DB1C464FF00043524209
:1006000063EB0403994208BF904230BD064C074D8E
:1006100006E0E06840F0010394E8070098471034D2
:10062000AC42F6D3FFF788FD143F0008343F0008C2
:10063000202A04DB203A00FA02F1002070479140A2
:10064000C2F1200320FA03F3194390407047202A97
:1006500006DBCB17203A41FA02F043EAE07306E0EA
:1006600041FA02F3D040C2F12002914008431946FA
:10067000704710B5141E73F1000408DA401C41F1F4
:10068000000192185B411A4301D120F0010010BD16
:100690002DE9F04D92469B4611B1B1FA81F202E08C
:1006A000B0FA80F220329046FFF7C2FF04460F46B0
:1006B00040EA0A0041EA0B0153465A46084313D068
:1006C000114653EA010019D0C8F140025046FFF725
:1006D0004DFD05460E46504659464246FFF7A8FFD7
:1006E000084305D0012004E020463946BDE8F08DDE
:1006F0000020054346EAE0762C4337430A98630519
:10070000E40AA0EB08000022FD0A44EA47540A303C
:1007100002D500200146E9E7010510196941DDE92C
:10072000084500196941BDE8F04DA2E770B50446DF
:1007300000688168C943C90717D1816821F00101A8
:10074000816000F0F1FE05460AE000BF00F0ECFE1B
:10075000401B022804D920688068C043C00706D027
:1007600020688068C043C007F0D0002070BDA06A38
:1007700040F01000A062E06A40F00100E062012059
:1007800070BD10B50146406A826A12F0500F05D064
:10079000006A026BBDE8104008461047816A41F4C8
:1007A0000071816201688968C1F3424107290CD157
:1007B000017B51B9816A21F480718162816AC90427
:1007C00003D4816A41F00101816200F05BF910BD40
:1007D00010B5406A816A41F040018162C16A41F00E
:1007E0000401C16200F0AFF910BD10B5406A00F01D
:1007F000A9F910BDF8B50026044600960068816886
:10080000C943C9072DD0816841F0010181601648B4
:1008100016490068B0FBF1F000E0401E009000288F
:10082000FBD100F081FE054616E000BF00F07CFE23
:10083000401B022810D920688068C043C0070BD035
:10084000A06A40F01000A062E06A40F00100E0629F
:1008500084F824600120F8BD20688068C043C00788
:10086000E4D10020F8BD00001800002040420F0035
:10087000FEE70000014800F0A1BB00006C02002070
:1008800030B590F840500124AC40C56B6C600468F2
:1008900063604368102B036803D099600068C260EE
:1008A00030BD9A600068C16030BD704772B6FEE727
:1008B000F8B500250446009590F82400012808D0DA
:1008C000012084F824002046FFF730FF060002D004
:1008D00053E00220F8BDA06A20F4885040F00200E6
:1008E000A062022000F0BEFE26490968B1FBF0F0CC
:1008F000400000E0401E00900028FBD12046FFF79A
:1009000079FF2068816841F00801816000F00CFEE9
:10091000074608E000F008FEC01B0A2803D920683B
:100920008068000715D4206880680007F2D420682A
:10093000816841F00401816000F0F6FD074612E095
:1009400000F0F2FDC01B0A280DD92068806840071E
:1009500009D5A06A20F0020040F01000A06284F8DF
:1009600024500120F8BD206880684007E8D4A06AC0
:1009700020F0020040F00100A06284F824503046CC
:10098000F8BD000018000020F8B50024009490F88D
:1009900024202546012A12D0012280F824204A680A
:1009A0001F23072A0DD20668776B521E02EB8202C4
:1009B00093409F430B6893401F43776319E00220E5
:1009C000F8BD06680D2A0AD2376BD21F02EB8202ED
:1009D00093409F430B6893401F43376309E0F76AD6
:1009E0000D3A02EB820293409F430B6893401F43F2
:1009F000F7620A68072306680A2A0AD3F7680A3AE0
:100A000002EB420293409F438B6893401F43F76081
:100A100008E0376902EB420293409F438B689340A2
:100A20001F4337610A68102A01D0112A20D1124BC6
:100A300002689A4217D193681B0219D4936843F451
:100A4000000393600968102912D10C490C4A096807
:100A5000B1FBF2F101EB8101490000E0491E009178
:100A60000029FBD104E0816A41F020018162012468
:100A700080F824502046F8BD0024014018000020D2
:100A800040420F0070B52C4C2079401CC0B203F0DE
:100A900089F92A4901F194000A8882834A880283ED
:100AA0008A888282CA8802820A8982814A8902816E
:100AB0008A898280CA8902800A8A42804A8AC280E0
:100AC0008A8A4281CA8AC2810A8B42824A8BC28246
:100AD0008A8B4283C98BC1835FF00001C1F10F0291
:100AE00030F8113030F8125020F81150491C20F81D
:100AF00012300829F2DB124B6168002202EB01156B
:100B000030F81260521C23F81560102AF6DB491CDD
:100B1000616010290BD04FF4FA7003F015F8BDE8AE
:100B200070400649102201F1200000F005B90120B3
:100B300020800020606070BD000000201C020020AA
:100B40001C000020704770472DE9F04104004FF071
:100B500000057FD0A06A002628B9E66284F82460E8
:100B6000204600F081F82046FFF7E0FDA16AC906A3
:100B700000D420B1A06A40F01000A0626AE0A16A2F
:100B800021F4885141F00201A162334923688B426C
:100B9000E16904D1B1F5402F01D14FF40021277B49
:100BA0004FF4807C41EA470261680A43A1686145CD
:100BB00008D0012906D0002194F814E0BEF1010FFD
:100BC00002D00AE06146F7E7C7B1A76A47F02007FD
:100BD000A762E76A47F00107E7625F6827F46947A1
:100BE0000F435F60236899681C4F39401143996037
:100BF000A16861450BD0012909D00CE0DFF860E065
:100C0000A7690EEB47370F4347F40061E5E7218AF8
:100C10000D05A5F580152168CB6A23F470032B43DD
:100C2000CB62216889680F4B1940914208D1E66276
:100C3000A16A21F0020141F00101A162BDE8F08149
:100C4000A06A20F0020040F01000A062E06A40F0CC
:100C50000100E0620120F1E7003C0140FDF7E1FF07
:100C600000E0FFFFFE0E1FFF70B586B000250646B0
:100C700000950195029503950068284988424BD15B
:100C80002749886940F400708861886900F4007021
:100C90000490886940F010008861886900F01000B5
:100CA0000490886940F004008861886900F00400BD
:100CB0000490886940F0080088618869032400F086
:100CC000080004903F20CDE900046946154800F073
:100CD00021FBFF20CDE900046946134800F01AFB10
:100CE000009469461148019400F014FB114C10481F
:100CF000C4E900058020C4E9025040002061800062
:100D0000C4E90505C000E061204600F07BFA08B1A7
:100D1000FFF7CCFD3462666206B070BD002401406E
:100D2000001002400010014000080140000C01408A
:100D3000080002406C0200202DE9F0478946044675
:100D40003B4900683B4F0E1D9046884201D0B84297
:100D500007D1306810F4702F03D001252846BDE874
:100D6000F08794F8240001280CD0012084F8240096
:100D70002046FFF73FFD05004FF0000004D084F847
:100D80002400EBE70220EAE7A16A40F60162914302
:100D900041F48071A1622168B94218D1326812F41D
:100DA000702F14D0A16A41F48011A1623168490505
:100DB00005D5A16A21F4005141F48051A162A16AD4
:100DC000C9040AD5E16A21F00601E16206E0A26ADF
:100DD00022F48012A2624968E9E7E06284F8240004
:100DE000216A15488862216A1448C862216A144839
:100DF000086321686FF0020008602068816841F490
:100E000080718160216843464A464C31206A00F077
:100E100037FA20688168C1F342410729816803D00D
:100E200041F48011816099E741F4A001FAE70000E4
:100E3000002401400028014083070008EB07000858
:100E4000D107000810B590F821100022022905D022
:100E50000421816380F82020012010BD01680B6807
:100E600023F00E030B6001680B6823F001030B6095
:100E700090F84030C46B012101FA03F3636080F8FD
:100E8000211080F82020104610BD00002DE9F05FF1
:100E900090F821100024022903D004218163012449
:100EA00085E001680A6822F00E020A6001680A689B
:100EB00022F001020A603F4E3E4FB215DFF8F4C047
:100EC000DFF8F090DFF8ECA0DFF8E8B0DFF8E4E05E
:100ED0000168783F13011502ACF1640CA9F15009C7
:100EE000AAF13C0AABF1280BAEF1140E4FF48018B6
:100EF000B14227D9B9420ED0614512D049451DD023
:100F0000514518D0594518D0714501D1424615E0D8
:100F1000294EB14201D1012210E0274E1436B142D0
:100F200001D110220AE0244E2836B14206D0224ACE
:100F30003C32914201D11A4600E02A461E49091F5F
:100F40000A602BE0B94213D0614517D0494522D041
:100F500051451DD059451DD0714501D142461AE079
:100F6000B14202D14FF0807215E0134EB14201D16F
:100F7000012210E0104E1436B14201D110220AE0D5
:100F80000D4E2836B14206D00B4A3C32914201D177
:100F90001A4600E02A46074980394A60012180F854
:100FA0002110002180F82010416B01B188472046B4
:100FB000BDE8F09F80000240080402402DE9F05F88
:100FC000C16B0A6801680B68046C4FF0040808FAEA
:100FD00004F8844D844E854FDFF814C2DFF8149274
:100FE000DFF814A2DFF814B2DFF814E218EA020FF7
:100FF00065D05FEA437862D50A68920603D40A682E
:1010000022F004020A60DFF8F0814FF48062016888
:1010100008F1140813011402414524D9A9420DD046
:10102000B1420FD0B9421AD0614515D0494515D00B
:10103000514501D1120312E0594501D104220EE0BD
:10104000714501D140220AE06D4D1435A94206D008
:101050006B4A2832914201D11A4600E02246674984
:10106000091F0A6029E0A94213D0B14215D0B94244
:1010700020D061451BD049451BD0514502D14FF4CA
:10108000800217E0414502D14FF0806212E05945DD
:1010900001D104220EE0714501D140220AE0584DF1
:1010A0001435A94206D0564A2832914201D11A4637
:1010B00000E022464B4908394A60C16A71E04FF0AE
:1010C000020808FA04F818EA020F70D05FEA837881
:1010D0006DD50A68920606D40A6822F00A020A60F0
:1010E000012180F82110DFF810814FF400720168AF
:1010F00008F1140813011402414524D9A9420DD066
:10110000B1420FD0B9421AD0614515D0494515D02A
:10111000514501D1120312E0594501D102220EE0DE
:10112000714501D120220AE0354D1435A94206D07F
:10113000334A2832914201D11A4600E022462F4913
:10114000091F0A6029E0A94213D0B14215D0B94263
:1011500020D061451BD049451BD0514502D14FF4E9
:10116000001217E0414502D14FF0007212E05945DC
:1011700001D102220EE0714501D120220AE0204D6A
:101180001435A94206D01E4A2832914201D11A468E
:1011900000E02246134908394A60002180F82010F7
:1011A000816A00291CD0BDE8F05F0847FFE70825E9
:1011B000A540154214D01A0712D50A6822F00E0273
:1011C0000A6090F84020C36B012101FA02F25A60D4
:1011D000816380F82110002180F82010016BE0E786
:1011E000BDE8F09F080002401C00024030000240B1
:1011F00044000240580002406C00024008040240D3
:101200001C04024030B560B11A4B026814219A42A6
:1012100009D2194B1344B3FBF1F18900016417495A
:101220000AE0012030BD134B5B421344B3FBF1F1E4
:10123000890001640F490839C163022180F8211037
:10124000136843F6F0718B43F0E901142143D0E9B0
:1012500002452C43214304692143446921438469A5
:101260002143194311600021416301224277017734
:10127000084630BD08040240F8FFFDBF00000240F0
:1012800070B5044690F82000002501280CD00120FC
:1012900084F8200094F821600020012E06D084F804
:1012A00020000225284670BD022070BD022684F869
:1012B0002160A0632068066826F0010606602046CB
:1012C000FFF7DEFAE06A00282068016802D041F0EA
:1012D0000E0106E021F0040101602068016841F080
:1012E0000A0101602068016841F001010160D9E74D
:1012F00070B5044600F018F90546601C02D0044899
:101300000078044400F010F9401BA042FAD370BDED
:101310000C0000202DE9F84FDFF8C891002409F1F6
:10132000040A0AF1040B23460F270BF1040ED1E047
:101330000125A54006EA0502AA4276D1DFF8A8C138
:101340004E68A6EB0C0866452BD00DDC032E34D07E
:1013500005DC36B3012E19D0022E2FD11BE0112E41
:1013600016D0122E2AD119E0B8F5881F19D006DC44
:10137000B8F5803F15D0B8F5801F1FD111E0B8F542
:10138000001F0ED0B8F5041F18D10AE0CB6815E095
:10139000CB681B1D12E0CB6808330FE0CB680C3321
:1013A0000CE08B682BB1012B4FF0080303D0456193
:1013B00004E0042302E0056100E00023FF2A01D8D5
:1013C000064601E000F104064FEA840501D9A5F1C3
:1013D0002005D6F8008007FA05FC28EA0C0803FA75
:1013E00005F548EA0508C6F800804D68ED0070D59F
:1013F0003E4DAE6946F00106AE61AD6924F00306CC
:1014000005F0010500953A4D06EB050CDCF8085097
:10141000A607360F07FA06F825EA0805DFF8D48094
:10142000404503D14FF0000825E052E0DFF8C880C6
:10143000404502D14FF001081DE0DFF8C080404573
:1014400002D14FF0020816E0DFF8B480404502D127
:101450004FF003080FE0DFF8AC80404502D14FF0B9
:10146000040808E0DFF8A080404502D14FF00508ED
:1014700001E04FF0060808FA06F848EA0508CCF83B
:1014800008804D68D9F80060ED034D4601D516433C
:1014900000E096432E604D68DAF80060AD035546D3
:1014A00001D5164300E096432E604D68DBF80060DE
:1014B000ED025D4601D5164300E096432E604D686F
:1014C000DEF80060AD02754601D5164300E0964394
:1014D0002E60641C0A681646E2407FF429AFBDE81E
:1014E000F88F0000000401400000111000100240BD
:1014F0000000014000080140000C014000100140C4
:101500000014014000180140001C0140C26821EA9B
:1015100002030A4043EA0241016170470AB10161D6
:1015200070470904FBE7000001488068704700002D
:101530000C000020024881680278114481607047E5
:101540000C000020074810B5016841F0100101604F
:10155000032000F075F80F2000F006F800F024F8E2
:10156000002010BD0020024070B50D4D04464FF420
:101570007A712878B1FBF0F00A490968B1FBF0F004
:1015800000F0D2FB48B9102C07D200222146501E91
:1015900000F036F800206C6070BD012070BD0000C6
:1015A0000C000020180000200C4808B5816941F0AB
:1015B00001018161816901F001010091C16941F07E
:1015C0008051C161C06900F08050009004484168BA
:1015D00021F0E06141F00071416008BD001002405F
:1015E00000000140002809DB00F01F0201219140AA
:1015F0004009800000F1E020C0F8001170470000B1
:10160000F0B40E4B1B680C46C3F30223C3F107056D
:10161000042D00D90425191D072901D2002300E05B
:10162000DB1E012606FA05F1491E214099409E4025
:10163000761E16403143F0BC01F0E8BB0CED00E033
:10164000064900F0070208684FF6FF03184040EA19
:101650000220034A10430860704700000CED00E0D0
:101660000000FA0510B52CA401461DCC86B08DE80B
:101670001D002DA02D4C00680490002004292FD0BF
:101680000BDC01292FD0022928D100F077F96168FD
:10169000C1F38131491C49001EE0082920D01029DE
:1016A0001CD161682268D20118D5C1F38342C903F5
:1016B0001DF8020009D5616804AAC1F34041515CDC
:1016C0001B4AB2FBF1F1484301E01A494843616803
:1016D000490203D440000321B0FBF1F006B010BD75
:1016E00000F05CF9FAE7226AC2F30121012903D173
:1016F000920701D5C803F1E7022905D1626A920772
:1017000002D549F64040E9E70329E7D1216889037A
:10171000E4D54FF22440E1E7020304050607080977
:101720000A0B0C0D0E0F10100102000000100240F9
:1017300000127A0000093D002DE9F84305460078C3
:10174000354CC00754D0E0690026C00008D4E069D9
:1017500040F08050E061E069012600F08050009088
:101760002E480168C90512D40168804641F4807191
:101770000160FFF7D9FE074605E000BFFFF7D4FE82
:10178000C01B642823D8D8F80000C005F6D5206A0D
:1017900010F4407021D0A98801F4407181421CD01E
:1017A000206A1F49012220F440700A6000220A606A
:1017B0002062C00711D0FFF7B7FE074641F2883814
:1017C00008E000BFFFF7B0FEC11B414502D903206E
:1017D000BDE8F883206A8007F4D5206A696820F4A0
:1017E0004070084320621EB1E06920F08050E06143
:1017F0002878800705D56068A96820F44040084330
:1018000060602878C00605D56068696920F48000AA
:10181000084360600020DBE70010024000700040D9
:10182000400442422DE9F0470F46050061D0434E87
:10183000306800F00700B84209D2306820F0070095
:1018400038433060306800F00700B84251D1286852
:101850003B4C810712D5400703D5606840F4E06037
:1018600060602878000703D5606840F460506060CD
:101870006068A96820F0F000084360602878C0071D
:1018800028D06868012810D02168022810D0890764
:1018900000292EDA616821F0030101436160FFF73E
:1018A00043FE804641F288390DE021688903EFE765
:1018B0008901EDE7FFF738FEA0EB0801494502D9A1
:1018C0000320BDE8F0876068696800F00C00B0EBA9
:1018D000810FEFD1306800F00700B8420BD93068B3
:1018E00020F0070038433060306800F00700B8424D
:1018F00001D00120E5E72878400705D56068E96850
:1019000020F4E060084360602878000706D560682E
:10191000296920F4605040EAC100606000F03EF8A0
:101920006168084AC1F30311515CC8400649086068
:1019300006480068FFF718FE0020C2E700200240BA
:1019400000100240753E0008180000201000002022
:10195000014800687047000018000020044805494D
:1019600000684968044AC1F30221515CC8407047CD
:101970001800002000100240853E00080448054978
:1019800000684968044AC1F3C221515CC8407047ED
:101990001800002000100240853E000812A185B00A
:1019A0000FC98DE80F0014A0144A00680490516814
:1019B000134801F00C03042B10D0082B0ED1C1F3F7
:1019C0008343C9031DF803000AD5516804AAC1F373
:1019D0004041515C0A4A5043B0FBF1F005B07047FA
:1019E00008494843FAE7000002030405060708090E
:1019F0000A0B0C0D0E0F1010010200000010024027
:101A000000127A0000093D002DE9F84F040070D063
:101A10002078C04DC00749D06868C0F38100012814
:101A200007D06868C0F38100022809D16868C00344
:101A300006D52868800339D560680028E7D035E0EE
:101A40006068B0F5803F0BD010B1B0F5A02F11D079
:101A5000286820F480302860286820F4802002E084
:101A6000286840F480302860606890B1FFF75CFD22
:101A700006460AE0286840F480202860F0E700BFAE
:101A8000FFF752FD801B642873D828688003F7D5C0
:101A90000CE0FFF749FD064605E000BFFFF744FDF7
:101AA000801B6428F0D828688003F7D420789A4EE9
:101AB00080074FF001094FF0000839D5686810F031
:101AC0000C0F07D06868C0F38100022809D168684C
:101AD000C00306D42868800714D52069012808D1DE
:101AE00010E02069B0B1C6F80090FFF71DFD074671
:101AF00005E00AE1FFF718FDC01B0228C4D82868DA
:101B00008007F7D52868616920F0F80040EAC10035
:101B100028600DE0C6F80080FFF706FD074604E0E8
:101B2000FFF702FDC01B022823D828688007F7D4DE
:101B3000207800072CD57948A169D9B1C0F8009068
:101B4000FFF7F2FC074604E0FFF7EEFCC01B02289B
:101B50000FD8686A8007F7D571484FF4FA510068CA
:101B6000B0FBF1F0009000BF0098411E0091FAD246
:101B70000EE080E0C0F80080FFF7D6FC074604E0E6
:101B8000FFF7D2FCC01B022875D8686A8007F7D41B
:101B90002078400760D5E8690027C00008D4E869CC
:101BA00040F08050E861E869012700F08050009023
:101BB0005C480168C90513D40168834641F480710B
:101BC0000160FFF7B1FC824606E000BFFFF7ACFC06
:101BD000A0EB0A0064284ED8DBF80000C005F5D55C
:101BE000E06801280AD008B1052813D0286A20F03F
:101BF00001002862286A20F0040002E0286A40F010
:101C000001002862E06841F2883B98B1FFF78CFC44
:101C100082460BE0286A40F004002862EEE700BF2D
:101C2000FFF782FCA0EB0A0159455AD8286A8007C1
:101C3000F6D50CE0FFF778FC824605E0FFF774FC70
:101C4000A0EB0A0159454CD8286A8007F6D41FB189
:101C5000E86920F08050E861E06988B36968C1F301
:101C60008101022944D00228C6F8608004D0FFF721
:101C70005BFC044638E034E0FFF756FC074604E01E
:101C8000FFF752FCC01B02282BD828688001F7D42C
:101C9000206AB0F5803F05D16868A16820F4003063
:101CA00008436860D4E908010843696821F47411A5
:101CB00008436860C6F86090FFF736FC044606E00B
:101CC00025E000BFFFF730FC001B022809D8286878
:101CD0008001F7D51BE000BFFFF726FC001B0228A0
:101CE00002D90320BDE8F88F28688001F4D40EE003
:101CF0000128F7D06868226A00F48031914204D14B
:101D0000616A00F47010884201D00120EAE70020E7
:101D1000E8E7000000100240000042428004424216
:101D2000180000200070004010B5401EB0F1807F08
:101D300001D3012010BD4FF0E02460610F21601736
:101D400001F064F80020A06107202061002010BD90
:101D50007047704770B590F83C20012A2CD00124C0
:101D600080F83C40022280F83D2003685A689D6854
:101D700022F070060A6832435A60104B02689A4299
:101D80000ED00F4B9A420BD0B2F1804F08D00D4BC2
:101D90009A4205D00C4B9A4202D00C4B9A4204D185
:101DA000496825F080031943916080F83D40002187
:101DB00080F83C10084670BD022070BD002C014028
:101DC000003401400004004000080040000C0040C6
:101DD00010B5040003D094F83D0010B107E00120D5
:101DE00010BD002084F83C00204600F01FF80220BF
:101DF00084F83D00211D206800F000FE012084F8D9
:101E0000460084F83E0084F83F0084F8400084F8DF
:101E1000410084F8420084F8430084F8440084F8C8
:101E2000450084F83D00002010BD000008B50068A2
:101E3000B0F1804F12D10A48C16941F00101C1617E
:101E4000C069002200F00100009002211C20FFF771
:101E5000D7FBBDE808401C20FFF7C4BB08BD00004D
:101E60000010024090F83D10012901D00120704778
:101E7000022180F83D100168CA6842F00102CA6080
:101E800000680E4988420ED00D4988420BD0B0F14F
:101E9000804F08D00B49884205D00B49884202D0B8
:101EA0000A49884204D1816801F00701062903D05C
:101EB000016841F00101016000207047002C0140E1
:101EC000003401400004004000080040000C0040C5
:101ED00070B5044690F83C00012817D0012584F81D
:101EE0003C50022084F83D002068826822F077028E
:101EF00022F47F4282600868502830D00DDC202810
:101F00004DD005DC98B310283BD148E0022070BDCD
:101F1000302844D0402834D139E0602828D07028B7
:101F200006D0B0F5805F2CD0B0F5005F29D10AE073
:101F3000CB68D1E90121206800F0A6FD2068816806
:101F400041F0770109E0CB68D1E90121206800F078
:101F50009BFD2068816841F48041816011E0CA687E
:101F60004968206800F0A2FD5021206807E016E0D3
:101F7000CA684968206800F0AAFD6021206800F066
:101F80008DFD84F83D50002084F83C0070BDCA6887
:101F90004968206800F08AFD40212068EFE7226848
:101FA00001461046EBE7704770B5044600680169CA
:101FB0004FF00005C943890715D4C168C943890793
:101FC00011D4E91E01610120207720688069800713
:101FD000204602D0FFF7E7FF04E000F098F8204623
:101FE00000F096F8257720680169C943490717D49E
:101FF000C168C943490713D46FF00401016102208D
:1020000020772068806910F4407F204602D0FFF7D7
:10201000CAFF04E000F07BF8204600F079F825774D
:1020200020680169C943090716D4C168C943090773
:1020300012D46FF008010161042020772068C06984
:102040008007204602D0FFF7AEFF04E000F05FF803
:10205000204600F05DF8257720680169C943C9066C
:1020600017D4C168C943C90613D46FF010010161C8
:10207000082020772068C06910F4407F204602D0F5
:10208000FFF791FF04E000F042F8204600F040F82E
:10209000257720680169C943C90708D1C168C943C8
:1020A000C90704D1891E0161204600F033F8206879
:1020B0000169C943090609D4C168C943090605D4A1
:1020C0006FF0800101612046FFF742FE2068016940
:1020D000C943490609D4C168C943490605D46FF00C
:1020E00040010161204600F057F820680169C943AA
:1020F00089060BD4C168C943890607D46FF0200153
:1021000001612046BDE87040FFF723BE70BD7047F7
:102110007047000070B5ADF5027D10211248FFF741
:10212000F5F91248018801291BD1002101804FF4E3
:1021300000720F49684601F0E7FD10B10DA000F0F4
:102140002FFE00246D4640F20626285D01F0C0FCFB
:10215000641CB442F9D30F49102201F12000FEF7AC
:10216000EBFD0DF5027D70BD000C0140000000206C
:102170001C0000205061636B6574207061636B65A7
:1021800064207375636365737366756C6C792E0D6B
:102190000A0000001C0200207047704770470000D2
:1021A000F8B5026804461068D168536910F00F0F43
:1021B0004FF0000553D003F0010601F49077374348
:1021C0005FD0C20705D0CA0503D5226C42F00102D8
:1021D0002264420705D5DA0703D0226C42F00202DE
:1021E0002264820705D5DA0703D0226C42F004028C
:1021F0002264020707D501F02002324303D0226C8B
:1022000042F008022264226C002A34D0800604D5F1
:10221000880602D5204600F08CFC20684069216CBD
:10222000C0F38010090700D430B3204600F069FCE9
:102230002068416949061BD5416921F0400141618F
:10224000A06BA8B158494163A06BFEF71FFE0028A0
:1022500011D0A06B416B01B0BDE8F0400847830688
:102260000FD58B060DD52046BDE8F84000F061BCC7
:102270002046FFF793FFF8BD2046FFF78FFF256448
:10228000F8BD266B2023012E52D1C60650D5CE06AE
:102290004ED5106850680090506940062AD5A16B51
:1022A000086840680004000CEAD0A68D8642E7D991
:1022B000E0858869202818D0D06820F48070D0602C
:1022C0002068416921F0010141612068416921F0E4
:1022D0004001416184F83E3025632068C16821F0E7
:1022E0001001C160A06BFEF7ADFDA08DE18D401A1D
:1022F00081B219E0A08DE18D401A81B2E08D0028F5
:10230000BED00029BCD0D06820F49070D060206886
:10231000426922F00102426184F83E302563206860
:10232000C26822F01002C2602046FFF736FFF8BDF7
:1023300005062BD50D0629D594F83D002128F6D1A8
:10234000A068B0F5805F01D12069B0B1206A411C5E
:102350002162216800784860E08C401E0004000C77
:10236000E084E4D12068C16821F08001C160206868
:10237000C16841F04001C160F8BD206A0088C0F327
:1023800008005060206A801C2062E5E74006F3D513
:102390004806F1D5D168204621F04001D16084F88B
:1023A0003D3000F074F9F8BDF32A000870B5040060
:1023B00004D094F83D00002510B106E0012070BD66
:1023C00084F83C50204600F023F8242084F83D0097
:1023D0002068C16821F40051C160204600F004FC6F
:1023E0002068016921F4904101612068416921F070
:1023F0002A0141612068C16841F40051C16025642F
:10240000202084F83D0084F83E00002070BD0000CC
:10241000F0B585B00024009401940294039405461D
:1024200002683948374B0221032607159A4229D101
:10243000826942F480428261826902F4804204929D
:10244000826942F0040282618069304D00F004002C
:1024500004900802CDE90001039669462846FEF77C
:1024600059FFCDE90074694628460294FEF752FFF1
:10247000002211462520FFF7C3F82520FFF7B2F808
:1024800005B0F0BD224B9A42FAD1826942F00802AF
:102490008261826902F008020492826942F00802B5
:1024A0008261826902F008020492C26942F48022C9
:1024B000C261C069CDE9007100F48020CDE90360FC
:1024C000144F69463846FEF725FFF814CDE900049D
:1024D000CDE9024669463846FEF71CFF0022114648
:1024E0002720FFF78DF82720FFF77CF82868C168C0
:1024F00041F02001C1602868C16841F01001C1604D
:10250000BEE7000000380140001002400008014012
:1025100000480040000C01402DE9F84F044690F8B7
:102520003E009A4616460D46202853D1FDB1F6B11D
:1025300094F83C0001284DD0012084F83C0000278D
:102540002764222084F83E002763FEF7EDFFA6856E
:102550008146E685A0684FF48058404501D1206946
:1025600040B12E465FF0000584F83C7027E0012062
:10257000BDE8F88F0026F7E74B46002220212046D1
:10258000CDF800A000F08CFB08B10320F0E726B1E5
:10259000A06840451BD038B108E020684068C0F30F
:1025A000080025F8020B07E0206980B12068406828
:1025B00000F07F0006F8010BE08D401EE085E08D05
:1025C0000028D9D1202084F83E000020D0E72068E0
:1025D0004068EFE70220CBE7704700002DE9F843A1
:1025E000044690F83D001F4616460D4620284CD163
:1025F000C5B1BEB194F83C00012846D0012084F852
:102600003C004FF00008C4F84080212084F83D00D1
:10261000FEF78AFFA6848146E684A068B0F5805F55
:1026200003D004E00120BDE8F883206928B12E46DC
:102630005FF0000584F83C800EE00026FAE7802178
:10264000204600F02DFBA0B9AEB116F8010B2168B1
:102650004860E08C401EE084E08C4B464FF0000266
:1026600000970028EBD14FF04001204600F018FB06
:1026700030B10320D7E735F8020BC0F30800E6E7D6
:10268000202084F83D000020CDE70220CBE77047F2
:10269000FEE70000FEB500245C48009401945A490E
:1026A0000294016089158160047304751025056129
:1026B0004FF460214460C161FEF746FA08B1FEF7AD
:1026C000F5F80126CDE90046694650480294FEF728
:1026D0005BF908B1FEF7EAF80224CDE90064694627
:1026E0004A48FEF751F908B1FEF7E0F800940324D8
:1026F000694646480194FEF747F908B1FEF7D6F857
:1027000000940424694641480194FEF73DF908B15C
:10271000FEF7CCF80094052469463C480194FEF786
:1027200033F908B1FEF7C2F8009406246946374829
:102730000194FEF729F908B1FEF7B8F800940724D0
:10274000694632480194FEF71FF908B1FEF7AEF86A
:102750000094082469462D480194FEF715F908B144
:10276000FEF7A4F800940924694628480194FEF76E
:102770000BF908B1FEF79AF800940A246946234839
:102780000194FEF701F908B1FEF790F800940B24CC
:1027900069461E480194FEF7F7F808B1FEF786F87F
:1027A00000940C24694619480194FEF7EDF808B12D
:1027B000FEF77CF800940D24694614480194FEF756
:1027C000E3F808B1FEF772F800940E2469460F484A
:1027D0000194FEF7D9F808B1FEF768F800940F24C9
:1027E00069460A480194FEF7CFF808B1FEF75EF893
:1027F00069460648CDE90045FEF7C6F8002801D035
:10280000FEF754F8FEBD0000002401403C02002009
:10281000094808B5416941F001014161406905225B
:1028200000F00100009002210B20FEF7E9FEBDE858
:1028300008400B20FEF7D6BE0010024030B585B030
:1028400000241F480094019402940394816941F08C
:1028500020018161816901F020010491816941F0C9
:1028600010018161816901F010010491816941F0D9
:1028700004018161816901F004010491816941F0E1
:102880000801816180690F4D00F00800049000226A
:102890004FF204012846FEF741FE01223821284666
:1028A000FEF73CFE4FF23C0000900120CDE9010410
:1028B0000220039069462846FEF72CFD05B030BD86
:1028C00000100240000C014010B586B000241748EB
:1028D000009401940294039404944FF08041059471
:1028E000016041F61F41C0E9011440F22B11C0E91B
:1028F000031480218161FFF76BFA08B1FDF7D6FF61
:102900004FF48050009069460848FFF7E1FA08B19B
:10291000FDF7CCFF049404A904480594FFF71AFAC4
:10292000002801D0FDF7C2FF06B010BDD002002084
:102930000C4810B50A4901604FF4E13141600021B3
:1029400081600C22C160C0E904128161C161FFF79E
:102950002DFD002803D0BDE81040FDF7A7BF10BD36
:102960000038014018030020FEE7FEE7704770477B
:10297000FEF7E0BD30B595B028216846FDF723FC91
:1029800014210AA8FDF71FFC18210FA8FDF71BFC56
:1029900001210804CDE900100025029502240491CC
:1029A000CDE907404FF4E01009906846FFF72CF896
:1029B00008B172B6FEE70AA90F2081E831004FF492
:1029C0008060CDE90D0502210AA8FEF72BFF08B1B2
:1029D00072B6FEE74FF4004011900F940FA8FEF777
:1029E000ABFE002801D072B6FEE715B030BD7047CF
:1029F0000148FFF7D9BA0000D0020020F0B5026804
:102A00001C4B1D4D1D4E1E4F1E4C4FF0804C9842CE
:102A100009D0A04207D0604505D0A84203D0B042FB
:102A200001D0B84204D122F0700E4A6842EA0E0288
:102A3000984209D0A04207D0604505D0A84203D0F3
:102A4000B04201D0B84203D122F44075CA682A438B
:102A50004D6922F080022A4302608A68C2620A68D5
:102A60008262984201D0A04201D10969016301212B
:102A70004161F0BD002C014000040040000800400E
:102A8000000C00400034014010B5846842EA032283
:102A900024F47F440A432243826010BD826822F0FE
:102AA00070020A4342F007018160704710B5036A63
:102AB000046A24F001040462846924F0F00444EA06
:102AC000021423F00A020A438461026210BD10B5A9
:102AD000036A23F0100303628369046A23F47043DA
:102AE00043EA023224F0A00343EA01118261016249
:102AF00010BD10B5406A0021C185C184FFF74EFBAF
:102B000010BD0168CA6822F49072CA6001684A69FF
:102B100022F001024A61016B012904D10168CA68EF
:102B200022F01002CA60202180F83E1000210163CB
:102B3000704708B590F83E10222901D0022008BD48
:102B400082684FF480539A4201D1016921B1816AB0
:102B50009A421BD04AB10AE00268816A5268C2F305
:102B600008020A80816A891C08E0026972B1026861
:102B7000526802F07F020A70816A491C8162C18D2D
:102B8000491E0904090CC18503D019E00268526886
:102B9000F1E70168CA6822F02002CA600168CA68C9
:102BA00022F48072CA6001684A6922F001024A6117
:102BB000202180F83E10016B012903D0FFF70CFDA6
:102BC000002008BD002101630168CA6822F01002DC
:102BD000CA6001680A68D20602D50A68496800918D
:102BE000818DFFF7DAFAEBE770B5044600680169FA
:102BF000E26821F44051114301612169A068084352
:102C0000616908432168CA6841F20C639A43024330
:102C1000CA6020684169A26921F440711143416191
:102C20001E492068884202D1FEF7A8FE01E0FEF7A7
:102C300095FE00EBC00101EB00126068642180008A
:102C4000B2FBF0F3B3FBF1F36FF018067343B2FB82
:102C5000F0F5B2FBF0F605EB8305322303EB051527
:102C6000B5FBF1F5B6FBF1F605F0F00505EB061541
:102C7000B2FBF0F6B2FBF0F0B0FBF1F06FF018022F
:102C8000504306EB800003EB0010B0FBF1F021682D
:102C900000F00F002844886070BD0000003801403B
:102CA0002DE9F041984617460E460446069D1DE064
:102CB000681C1BD02DB1FEF737FCA0EB0800A84222
:102CC00014D92068C16821F4D071C16020684169BD
:102CD00021F001014161202084F83D0084F83E008C
:102CE000002084F83C000320BDE8F08120680068E3
:102CF00036EA000004D00020B842D9D00020F3E723
:102D00000120F9E70148FFF74BBA00001803002043
:102D10007CB5214D28680168C943090704D40168BE
:102D2000416801910168416800681B4CC0438006FE
:102D3000A4F1840422D44FF0FF33012269461648DF
:102D4000FFF7EAFBB4F880204FF40030C2F30E0125
:102D50007F2902D29DF8002007E0D10BC903A4F817
:102D600080109DF80020C1F30E016254B4F8801069
:102D700000EBF1304FEA7040A4F880002868016849
:102D8000C943C90607D434F8801F41F400412180AB
:102D90000168406801907CBDE0030020FEE7000070
:102DA0000FB4054B10B503A9044A029800F010F9BE
:102DB00010BC5DF814FB0000653B00080800002013
:102DC0000FB4084B10B504A902AA039800F000F94B
:102DD000044602A9002000F07EFC204610BC5DF8ED
:102DE00014FB0000D736000837B514460846064BDA
:102DF0006A46214600F0ECF804466946002000F0DF
:102E00006AFC20463EBD0000D73600080907090EBF
:102E1000002804DB00F1E02080F80014704700F087
:102E20000F0000F1E02080F8141D704702E008C890
:102E3000121F08C1002AFAD170477047002001E034
:102E400001C1121F002AFBD1704700002DE9FF5F6E
:102E500082B00021DDE90430020DDDF840B003430B
:102E600018D044F61050A2F2FF32424315141198C4
:102E700001281FD0A5EB0B00401C5FEA000A4FF0B1
:102E800000064E4FDFF83891B046504615D5CAF1CE
:102E9000000413E0119801244AA3012801D16FEA2C
:102EA0000B010298119AC0E90031C0E9024206B054
:102EB000BDE8F09FCBF10000DFE704460021404A67
:102EC000491842EB0450CDE9001012E0E00707D0AA
:102ED00032463B4640464946FDF787FA80468946DA
:102EE00032463B4610461946FDF77FFA06460F4626
:102EF0006410002CEAD1DDE90401DDE90023BAF118
:102F0000000F06DAFDF771FA42464B46FDF76DFAFF
:102F100005E0FDF7DCFA42464B46FDF7D8FA0446D9
:102F20000E460022284BFDF759FB03D84FF0FF3027
:102F3000014607E00022254B20463146FDF7AEF959
:102F4000FDF734FB102409E0002C0ADB0A220023E1
:102F5000FDF773F9039B30321A55641E50EA0102E3
:102F6000F2D1641C039AC4F111031444119A012A8A
:102F700003D0012208430DD10AE0084304D0002009
:102F80004FF0110B119072E7A3EB0B056D1E0DE0D6
:102F90005B4504DD4FF0000205F1010504E003DAB2
:102FA0004FF00002A5F10105002AECD0029811991A
:102FB000C0E90231C0E9004579E700000000144093
:102FC0000000F03F300000000000F0430000E03F50
:102FD0002DE9FF4F95B09A46884606460025EEE15A
:102FE000252877D100242746F94A0121039400E0DF
:102FF000044316F8013F203B01FA03F01042F7D1D9
:1030000030782A2811D06FF02F033078A0F13002E9
:10301000092A16D8039A44F0020402EB820203EB59
:1030200042021044761C0390EFE758F8042B0392F9
:10303000002A03DA504244F40054039044F002049E
:10304000761C30782E2816D116F8010F44F00404AF
:103050002A280DD06FF02F023078A0F13003092B11
:1030600009D807EB870302EB4303C718761CF3E785
:1030700058F8047B761C30786C280FD006DC4C287E
:1030800017D068280DD06A2814D104E0742810D015
:103090007A280FD10DE044F400140AE044F48014BF
:1030A00001E044F440147278824202D104F58014A5
:1030B000761C761C307866280BD013DC582877D025
:1030C00009DC002875D04528F6D04628F4D04728DA
:1030D0001AD193E118E0632835D0642879D06528A7
:1030E00012D18BE1702873D008DC6728F1D06928F1
:1030F0006FD06E280DD06F2806D1ACE073282CD08D
:10310000752874D0782853D05246179990476D1C73
:1031100054E1C4F30250022809D003280DD0D8F896
:10312000001004280DD00D6008F1040846E1D8F81D
:103130000010EA17C1E90052F6E7D8F800100D8038
:10314000F2E70D70F0E718F8041B8DF8001000206E
:103150008DF80100EB46012003E058F804BB4FF066
:10316000FF3061074FF0000102D40DE009F10101C9
:103170008946B9420FDA8145F8DB1BF809100029AE
:10318000F4D108E009F1010189468142FADB1BF81C
:1031900009100029F6D103985346A0EB09072146F0
:1031A0003846179A00F080FA284400EB090507E03A
:1031B00044E008E10DE01BF8010B524617999047D7
:1031C000B9F10109F7D2534621463846179AF2E081
:1031D00039E00A21C4F302524FF0000B0091022A99
:1031E00006D058F8040BC117032A09D00AE023E0DF
:1031F00008F1070020F00702F2E80201904605E01E
:1032000000B2C117042A01D140B2C117002906DA61
:103210000A460021404261EB02012D2202E0220514
:1032200004D52B228DF80420012203E0E20701D00F
:103230002022F7E7914657E00A2100E010214FF0E5
:10324000000B00910BE010214FF0000B44F0040440
:103250000827009103E008204FF0000B0090C4F312
:103260000252022A05D058F8040B0021032A08D084
:1032700008E008F1070020F00702F2E8020190469A
:1032800003E080B2042A00D1C0B24FF00009220747
:103290002AD53278702A07D0DDF800C08CF0100CE7
:1032A0005CEA0B0C05D00EE040228DF804200122D0
:1032B00008E050EA010306D030238DF804308DF881
:1032C000052002229146009B83F0080353EA0B037A
:1032D0000AD150EA010201D1620705D530228DF8EA
:1032E00004204FF001097F1E3278582A04D039A2F9
:1032F0000C920CAA02920BE03BA2F9E75B46009A03
:10330000FCF79BFF0C9B9B5C029A521E029213706F
:1033100050EA0102F2D1029804A9081A00F1200B28
:10332000600702D524F4803400E001275F4502DD08
:10333000A7EB0B0000E0002000EB0B0100900398CE
:103340004944401A0390E00306D453462146179A95
:10335000039800F0A9F90544002706E001A85246A9
:10336000C05D179990476D1C7F1C4F45F6DBE0034D
:103370000CD553462146179A039800F095F9054459
:1033800004E030205246179990476D1C0099481E62
:1033900000900029F5DC08E0029802995246007876
:1033A000491C0291179990476D1CBBF10001ABF1CC
:1033B000010BF1DC5BE100F065F90544761C307827
:1033C00000287FF40DAE19B02846BDE8F08F00004C
:1033D00009280100303132333435363738396162EB
:1033E00063646566000000003031323334353637AF
:1033F000383941424344454600000000600700D48C
:10340000062708F1070020F00700F0E802238046B5
:1034100003F0004C5FEA0C0001D097A009E0200502
:1034200001D596A005E0E00701D095A001E0AFF23C
:103430004C001390307823F0004365280CD006DC54
:10344000452809D046281DD047287FD13BE0662873
:1034500018D067287AD136E00021112F01DB112026
:1034600000E0781CCDE9000104A90CA8FFF7EEFCF0
:10347000DDE90D010C9A4FF0000B07F101091092E4
:1034800000914EE04FF000400097CDE9011004A9F3
:103490000CA8FFF7DBFCDDE90D020C9B0F994FF048
:1034A000000B91461093009211B9791C00EB0109B1
:1034B000B7EB090003D4C0F1FF3B07F10109A9EB09
:1034C0000700019042E0012F00DA01270021112FAF
:1034D00001DD112000E03846CDE9000104A90CA867
:1034E000FFF7B4FCDDE90D010C9A00914FF0000BE1
:1034F000B946109221070FD4009A4A4503DA914643
:1035000001E0A9F10109B9F1010F05DD109AA9F156
:103510000101515C3029F4D0B84202DA10F1040FF5
:1035200003DA0121CDE9011010E0002803DC834417
:10353000A9EB000102E0411C494500DD8946A0EBF2
:103540000B00401C01904FF000400290200705D472
:103550000198484502DB4FF0FF30019000208DF8C4
:103560004B0002980DF14B07B0F1004F25D002201F
:103570000C902B200D90029800280CDA404202900B
:103580002D200D9007E00A210298FCF740FE303113
:10359000029007F8011D0C99481E0C900029F2DCDE
:1035A00002980028EFD1791E0D980870307800F04D
:1035B000200040F0450007F8020D11A8C01BC01DF7
:1035C00002901398007800B1012000EB09010198E6
:1035D00001EBE071029801440398401A401E0390E9
:1035E000E00306D453462146179A039800F05CF88E
:1035F00005441398007818B15246179990476D1CEE
:10360000E00323D553462146179A039800F04CF85F
:1036100005441BE0BBF1000F07DB0098584504DDB3
:103620001098179910F80B0001E0179930205246B6
:10363000904701980BF1010B401E05F10105019027
:1036400004D12E205246179990476D1CB9F1000104
:10365000A9F10109DEDC05E017F8010B52461799C4
:1036600090476D1C0299481E02900029F4DC5346D5
:103670002146179A03989EE62D0000002B000000BB
:10368000200000002DE9F041044600251E461746A3
:10369000880404D405E039462020B0476D1C641E20
:1036A000F9D52846BDE8F0812DE9F0410446002512
:1036B0001E469046C80301D5302700E02027880425
:1036C00004D505E041463846B0476D1C641EF9D567
:1036D0002846BDE8F0810A68531C0B6010707047E3
:1036E00070B500244FF4FA752A4606A106A000F032
:1036F00077F8002804D0641CE4B2032CF4D3012032
:1037000070BD00004F4B00004154000000B591B067
:103710000B46024607A16846FFF752FB41F288328A
:103720000BA1684600F05CF8002800D0012011B021
:1037300000BD000041542B43495053544152543D65
:1037400022544350222C222573222C257300000082
:10375000434F4E4E4543540010B500F08DF9FFF72E
:10376000BFFF002800D0012010BD000000B591B0BF
:103770000B46024607A16846FFF722FB42F2107291
:1037800009A1684600F02CF8002800D0012011B0F3
:1037900000BD000041542B43574A41503D22257340
:1037A000222C2225732200005749464920474F54B6
:1037B0002049500010B540F6B83204A105A000F031
:1037C0000FF8002800D0012010BD00007265616470
:1037D0007900000041542B524553544F524500008C
:1037E00070B514460D46064600F08CF931460CA023
:1037F00000F056F93DB134B100F074F938B1294602
:10380000FCF7ECFC08B1002070BD00F07BF9012052
:10381000641EFDF76DFD002CEED1022070BD00008E
:1038200025730D0A0000000010B54FF4FA7201284C
:1038300005D0022806D003280CD0032010BD07A114
:1038400007A001E005A109A0FFF7CAFF0028F5D0F5
:10385000012010BD01A108A0F6E700004F4B0000B9
:1038600041542B43574D4F44453D310041542B4368
:10387000574D4F44453D320041542B43574D4F4423
:10388000453D330010B54FF4FA7206A106A0FFF7CC
:10389000A7FF08B1012010BD4FF47A70FDF728FD95
:1038A000002010BD4F4B000041542B5253540000D8
:1038B0007FB54FF4E130FFF74FFF18B132A0FFF7AB
:1038C0006FFA7FBD37A0FFF76BFAFFF773FF572240
:1038D00039493AA0FFF764FAFFF702FF5922364947
:1038E00036A0FFF75DFA0120FFF79EFF5B22324909
:1038F00032A0FFF755FAFFF7C5FF5D222E492FA032
:10390000FFF74EFA32A135A0FFF730FF61222A49B6
:103910002AA0FFF745FA42F21074224630A131A0E6
:10392000FFF75EFF6822244924A0FFF739FA30A18F
:1039300031A0FFF7EBFE05466B221F491FA0FFF7E2
:103940002FFA15B130A0FFF72BFA70221A491BA0ED
:10395000FFF726FA224622A133A0FFF741FF2246B5
:103960001FA135A0FFF73CFF00F0CCF875221249EB
:1039700012A0FFF715FA33A000F092F869463BA0B9
:10398000FFF70EFA7FBD000041544B2D4D573832E2
:1039900036364420696E6974206661696C656421FD
:1039A0000D0A00004A6F696E696E6720746F2041CE
:1039B000502E2E2E0D0A0000643E000866756E63C0
:1039C0003A2573206C696E6525640D0A00000000BD
:1039D00077736E31323334353600000077736E0002
:1039E0004F4B000041542B4349504D55583D30003A
:1039F00038303030000000003139322E3136382E68
:103A000033312E31303100004572726F7220746F85
:103A100020636F6E6E6563742074637020736572CB
:103A2000766572210D0A000041542B4349504D4FD9
:103A300044453D310000000041542B43495053455B
:103A40004E440000546869732041544B2D4D573843
:103A5000323636442054435020436F6E6E65637493
:103A600020546573742E0D0A0000000049503A205E
:103A700025730D0A000000000849074AC1E900202B
:103A8000002088600C22C860C1E904028861C86116
:103A90000846FEF78BBC000000480040E003002011
:103AA0000FB40A4810B503AA0299FFF79DF9074819
:103AB000FCF7A6FB054982B24FF0FF33A1F14400A9
:103AC000FEF78CFD10BC5DF814FB00002404002000
:103AD000034909680A685206FCD5C2B24A607047B9
:103AE000E00300200649B1F88000020405D5C0F3C8
:103AF0000E0000220A54084670470020704700005C
:103B00005C030020034830F8801F6FF30F01018031
:103B1000704700005C03002070B505464FF6FF704B
:103B200000224AF201040CE0AB5C58400023C607B7
:103B300002D084EA500000E040085B1C082BF6DB52
:103B4000521C8A42F0D370BD10B50446FDF700FF49
:103B50000349B0FBF1F16143491EFDD210BD0000E5
:103B600000093D0004490A685206FCD5024AC1B268
:103B7000121D116070470000003801402DE9F05F10
:103B80009346894606460FF2900A00273FE000BFA1
:103B90000BEB07015046FFF703F90024A9EB0705DB
:103BA00004E0315D1FA0FFF7FBF8641C102D01D26B
:103BB000284600E01020A042F3D803E01BA0FFF746
:103BC000EFF8641C102CF9D319A0FFF7E9F80024D2
:103BD00011E000BF16F80480FCF7D8FA016811F86C
:103BE000080010F03E0F01D0414600E02E2111A048
:103BF000FFF7D6F8641C102D01D2284600E01020F3
:103C0000A042E7D80CA0FFF7CBF8103610374F458D
:103C1000BED3BDE8F09F000030782530386C6C785A
:103C20003A200000253032686878200020202000EB
:103C30007C000000256300000D0A0000FDF782FCF7
:103C4000FEF798FE00221146501EFDF7D9FCFEF744
:103C5000F5FDFEF7DDFDFEF71DFDFEF769FEFEF743
:103C600033FE10A212A115A0FFF79AF81848FCF72E
:103C70001FFE002000F096F80520FDF739FB10220A
:103C800014491348FDF758F8002220211248FDF787
:103C900045FCFFF70DFE11A0FFF702FF1948FEF7E4
:103CA000E1F8FEE731353A34343A313200000000B1
:103CB0004465632020322032303234006275696CF2
:103CC00074202D2D2025732025733A250D0A000020
:103CD0003C0200201C020020000C01405468697363
:103CE0002041544B2D4D57383236364420544350E2
:103CF00020436F6E6E65637420546573742E0D0AD5
:103D000000000000D002002030B5ADF5037D05466F
:103D1000B2F5007F03D914A0FFF742F820E04AF67D
:103D2000BB20ADF80000ADF8022001A8FCF732FA84
:103D30004FF401716846FFF7EFFEADF8040240F260
:103D40000624224669462846FCF724FABDF80210EC
:103D50000FA0FFF725F86A4621461046FFF70EFF31
:103D60000DF5037D002030BD5061796C6F616420DA
:103D700073697A652065786365656473206D617821
:103D8000696D756D206C696D69742E0A0000000004
:103D90007061796C6F61645F6C656E203A20256498
:103DA0000D0A000010283AD2DFE800F0080A0C10D3
:103DB0001517191B1D202326292D3135002313E04B
:103DC000002314E0002315E0002002E0002314E0AB
:103DD000012000F025B8002312E0002314E00023A6
:103DE00016E0002318E0012300220AE0012300224C
:103DF0000BE0012300220CE0012300220DE001234F
:103E000001220021E0E7012301220021E0E7012354
:103E100001220121D8E7012301220121D8E77047BF
:103E20002DE9F04115460E4F0C4602461E464FF452
:103E300080513846FDF772FB224679143846FDF76B
:103E40006DFB2A464FF480413846FDF767FB32464A
:103E50003846BDE8F0414FF40041FDF75FBB00007C
:103E6000000C014061746B5F6D7738323636645FE9
:103E7000746573740000000000000000000102037C
:103E80000406070809000000000102030400404086
:103E9000404040404040404141414141404040401D
:103EA000404040404040404040404040404005028B
:103EB00002020202020202020202020202022020A6
:103EC0002020202020202020020202020202029054
:103ED0009090909090101010101010101010101062
:103EE00010101010101010101002020202020288AE
:103EF00088888888880808080808080808080808C2
:103F00000808080808080808080202020240000021
:103F10008E3E0008343F0008000000201C00000016
:103F20002C2E0008503F00081C0000200C0C000044
:103F30003C2E00080000000000000000000000000F
:103F40000100000010000000000000000024F40048
:0400000508000131BD
:00000001FF
